{
  "contractName": "PixelsMetavers",
  "abi": [
    {
      "inputs": [],
      "stateMutability": "nonpayable",
      "type": "constructor"
    },
    {
      "anonymous": false,
      "inputs": [
        {
          "indexed": false,
          "internalType": "string",
          "name": "types",
          "type": "string"
        }
      ],
      "name": "HandleList",
      "type": "event"
    },
    {
      "inputs": [
        {
          "internalType": "address",
          "name": "",
          "type": "address"
        },
        {
          "internalType": "uint256",
          "name": "",
          "type": "uint256"
        },
        {
          "internalType": "uint256",
          "name": "",
          "type": "uint256"
        }
      ],
      "name": "assetsObj",
      "outputs": [
        {
          "internalType": "string",
          "name": "category",
          "type": "string"
        },
        {
          "internalType": "string",
          "name": "data",
          "type": "string"
        },
        {
          "internalType": "uint256",
          "name": "id",
          "type": "uint256"
        },
        {
          "internalType": "bool",
          "name": "isOutfit",
          "type": "bool"
        }
      ],
      "stateMutability": "view",
      "type": "function",
      "constant": true
    },
    {
      "inputs": [
        {
          "internalType": "uint256",
          "name": "",
          "type": "uint256"
        }
      ],
      "name": "goodsList",
      "outputs": [
        {
          "internalType": "address",
          "name": "merchant",
          "type": "address"
        },
        {
          "internalType": "string",
          "name": "name",
          "type": "string"
        },
        {
          "internalType": "string",
          "name": "category",
          "type": "string"
        },
        {
          "internalType": "string",
          "name": "data",
          "type": "string"
        },
        {
          "internalType": "uint256",
          "name": "amount",
          "type": "uint256"
        },
        {
          "internalType": "uint256",
          "name": "price",
          "type": "uint256"
        },
        {
          "internalType": "uint256",
          "name": "weight",
          "type": "uint256"
        },
        {
          "internalType": "uint256",
          "name": "id",
          "type": "uint256"
        },
        {
          "internalType": "uint256",
          "name": "saleAmount",
          "type": "uint256"
        }
      ],
      "stateMutability": "view",
      "type": "function",
      "constant": true
    },
    {
      "inputs": [
        {
          "internalType": "uint256",
          "name": "",
          "type": "uint256"
        }
      ],
      "name": "goodsObj",
      "outputs": [
        {
          "internalType": "address",
          "name": "merchant",
          "type": "address"
        },
        {
          "internalType": "string",
          "name": "name",
          "type": "string"
        },
        {
          "internalType": "string",
          "name": "category",
          "type": "string"
        },
        {
          "internalType": "string",
          "name": "data",
          "type": "string"
        },
        {
          "internalType": "uint256",
          "name": "amount",
          "type": "uint256"
        },
        {
          "internalType": "uint256",
          "name": "price",
          "type": "uint256"
        },
        {
          "internalType": "uint256",
          "name": "weight",
          "type": "uint256"
        },
        {
          "internalType": "uint256",
          "name": "id",
          "type": "uint256"
        },
        {
          "internalType": "uint256",
          "name": "saleAmount",
          "type": "uint256"
        }
      ],
      "stateMutability": "view",
      "type": "function",
      "constant": true
    },
    {
      "inputs": [
        {
          "internalType": "uint256",
          "name": "",
          "type": "uint256"
        }
      ],
      "name": "shopList",
      "outputs": [
        {
          "internalType": "address",
          "name": "merchant",
          "type": "address"
        },
        {
          "internalType": "string",
          "name": "name",
          "type": "string"
        }
      ],
      "stateMutability": "view",
      "type": "function",
      "constant": true
    },
    {
      "inputs": [
        {
          "internalType": "address",
          "name": "",
          "type": "address"
        }
      ],
      "name": "shopObj",
      "outputs": [
        {
          "internalType": "address",
          "name": "merchant",
          "type": "address"
        },
        {
          "internalType": "string",
          "name": "name",
          "type": "string"
        }
      ],
      "stateMutability": "view",
      "type": "function",
      "constant": true
    },
    {
      "inputs": [
        {
          "internalType": "uint256",
          "name": "",
          "type": "uint256"
        }
      ],
      "name": "userList",
      "outputs": [
        {
          "internalType": "bool",
          "name": "isMerchant",
          "type": "bool"
        }
      ],
      "stateMutability": "view",
      "type": "function",
      "constant": true
    },
    {
      "inputs": [
        {
          "internalType": "address",
          "name": "",
          "type": "address"
        }
      ],
      "name": "userObj",
      "outputs": [
        {
          "internalType": "bool",
          "name": "isMerchant",
          "type": "bool"
        }
      ],
      "stateMutability": "view",
      "type": "function",
      "constant": true
    },
    {
      "inputs": [
        {
          "internalType": "string",
          "name": "name",
          "type": "string"
        }
      ],
      "name": "application",
      "outputs": [],
      "stateMutability": "nonpayable",
      "type": "function"
    },
    {
      "inputs": [],
      "name": "getMerchantLength",
      "outputs": [
        {
          "internalType": "uint256",
          "name": "",
          "type": "uint256"
        }
      ],
      "stateMutability": "view",
      "type": "function",
      "constant": true
    },
    {
      "inputs": [],
      "name": "getUserLength",
      "outputs": [
        {
          "internalType": "uint256",
          "name": "",
          "type": "uint256"
        }
      ],
      "stateMutability": "view",
      "type": "function",
      "constant": true
    },
    {
      "inputs": [],
      "name": "getShopLength",
      "outputs": [
        {
          "internalType": "uint256",
          "name": "",
          "type": "uint256"
        }
      ],
      "stateMutability": "view",
      "type": "function",
      "constant": true
    },
    {
      "inputs": [
        {
          "internalType": "string",
          "name": "name",
          "type": "string"
        },
        {
          "internalType": "string",
          "name": "category",
          "type": "string"
        },
        {
          "internalType": "uint256",
          "name": "amount",
          "type": "uint256"
        },
        {
          "internalType": "uint256",
          "name": "price",
          "type": "uint256"
        },
        {
          "internalType": "uint256",
          "name": "weight",
          "type": "uint256"
        },
        {
          "internalType": "string",
          "name": "data",
          "type": "string"
        }
      ],
      "name": "postGoods",
      "outputs": [],
      "stateMutability": "nonpayable",
      "type": "function"
    },
    {
      "inputs": [
        {
          "internalType": "uint256",
          "name": "id",
          "type": "uint256"
        }
      ],
      "name": "buyGoods",
      "outputs": [],
      "stateMutability": "nonpayable",
      "type": "function"
    },
    {
      "inputs": [
        {
          "internalType": "uint256",
          "name": "id",
          "type": "uint256"
        },
        {
          "internalType": "uint256",
          "name": "index",
          "type": "uint256"
        }
      ],
      "name": "outfit",
      "outputs": [],
      "stateMutability": "nonpayable",
      "type": "function"
    }
  ],
  "bytecode": "0x608060405234801561001057600080fd5b506126b9806100206000396000f3fe608060405234801561001057600080fd5b50600436106100ea5760003560e01c8063c0a739211161008c578063cc680c8f11610066578063cc680c8f1461027b578063de01c3cb14610299578063e0895d41146102d1578063e2178d65146102ed576100ea565b8063c0a7392114610212578063c789158c14610243578063c8b956501461025f576100ea565b80638f4babfb116100c85780638f4babfb146101755780639f4216e814610191578063a4f4697d146101c1578063a776ca4c146101f4576100ea565b80631f53248f146100ef57806328d27f091461011f5780637456fed614610157575b600080fd5b61010960048036038101906101049190611dcf565b61031e565b6040516101169190612282565b60405180910390f35b61013960048036038101906101349190611f59565b610349565b60405161014e999897969594939291906121e0565b60405180910390f35b61015f61055f565b60405161016c9190612390565b60405180910390f35b61018f600480360381019061018a9190611f59565b61056c565b005b6101ab60048036038101906101a69190611f59565b6109f0565b6040516101b89190612282565b60405180910390f35b6101db60048036038101906101d69190611df8565b610a2b565b6040516101eb949392919061229d565b60405180910390f35b6101fc610ba2565b6040516102099190612390565b60405180910390f35b61022c60048036038101906102279190611f59565b610baf565b60405161023a9291906121b0565b60405180910390f35b61025d60048036038101906102589190611f82565b610c8b565b005b61027960048036038101906102749190611e47565b61108c565b005b6102836113bd565b6040516102909190612390565b60405180910390f35b6102b360048036038101906102ae9190611f59565b6113ca565b6040516102c8999897969594939291906121e0565b60405180910390f35b6102eb60048036038101906102e69190611e88565b6115d0565b005b61030760048036038101906103029190611dcf565b611bce565b6040516103159291906121b0565b60405180910390f35b60026020528060005260406000206000915090508060000160009054906101000a900460ff16905081565b6007818154811061035957600080fd5b90600052602060002090600902016000915090508060000160009054906101000a900473ffffffffffffffffffffffffffffffffffffffff16908060010180546103a29061253c565b80601f01602080910402602001604051908101604052809291908181526020018280546103ce9061253c565b801561041b5780601f106103f05761010080835404028352916020019161041b565b820191906000526020600020905b8154815290600101906020018083116103fe57829003601f168201915b5050505050908060020180546104309061253c565b80601f016020809104026020016040519081016040528092919081815260200182805461045c9061253c565b80156104a95780601f1061047e576101008083540402835291602001916104a9565b820191906000526020600020905b81548152906001019060200180831161048c57829003601f168201915b5050505050908060030180546104be9061253c565b80601f01602080910402602001604051908101604052809291908181526020018280546104ea9061253c565b80156105375780601f1061050c57610100808354040283529160200191610537565b820191906000526020600020905b81548152906001019060200180831161051a57829003601f168201915b5050505050908060040154908060050154908060060154908060070154908060080154905089565b6000600380549050905090565b80600073ffffffffffffffffffffffffffffffffffffffff166006600083815260200190815260200160002060000160009054906101000a900473ffffffffffffffffffffffffffffffffffffffff1673ffffffffffffffffffffffffffffffffffffffff161415610613576040517f08c379a000000000000000000000000000000000000000000000000000000000815260040161060a90612350565b60405180910390fd5b600060066000848152602001908152602001600020604051806101200160405290816000820160009054906101000a900473ffffffffffffffffffffffffffffffffffffffff1673ffffffffffffffffffffffffffffffffffffffff1673ffffffffffffffffffffffffffffffffffffffff16815260200160018201805461069a9061253c565b80601f01602080910402602001604051908101604052809291908181526020018280546106c69061253c565b80156107135780601f106106e857610100808354040283529160200191610713565b820191906000526020600020905b8154815290600101906020018083116106f657829003601f168201915b5050505050815260200160028201805461072c9061253c565b80601f01602080910402602001604051908101604052809291908181526020018280546107589061253c565b80156107a55780601f1061077a576101008083540402835291602001916107a5565b820191906000526020600020905b81548152906001019060200180831161078857829003601f168201915b505050505081526020016003820180546107be9061253c565b80601f01602080910402602001604051908101604052809291908181526020018280546107ea9061253c565b80156108375780601f1061080c57610100808354040283529160200191610837565b820191906000526020600020905b81548152906001019060200180831161081a57829003601f168201915b505050505081526020016004820154815260200160058201548152602001600682015481526020016007820154815260200160088201548152505090506000816101000151826080015161088b919061247e565b905060008111156108d1576040517f08c379a00000000000000000000000000000000000000000000000000000000081526004016108c890612310565b60405180910390fd5b60018261010001516108e39190612428565b82610100018181525050600260003373ffffffffffffffffffffffffffffffffffffffff1673ffffffffffffffffffffffffffffffffffffffff1681526020019081526020016000206001016040518060800160405280846040015181526020018460600151815260200186815260200160001515815250908060018154018082558091505060019003906000526020600020906004020160009091909190915060008201518160000190805190602001906109a0929190611c9a565b5060208201518160010190805190602001906109bd929190611c9a565b506040820151816002015560608201518160030160006101000a81548160ff021916908315150217905550505050505050565b60038181548110610a0057600080fd5b90600052602060002090600202016000915090508060000160009054906101000a900460ff16905081565b60016020528260005260406000206020528160005260406000208181548110610a5357600080fd5b90600052602060002090600402016000925092505050806000018054610a789061253c565b80601f0160208091040260200160405190810160405280929190818152602001828054610aa49061253c565b8015610af15780601f10610ac657610100808354040283529160200191610af1565b820191906000526020600020905b815481529060010190602001808311610ad457829003601f168201915b505050505090806001018054610b069061253c565b80601f0160208091040260200160405190810160405280929190818152602001828054610b329061253c565b8015610b7f5780601f10610b5457610100808354040283529160200191610b7f565b820191906000526020600020905b815481529060010190602001808311610b6257829003601f168201915b5050505050908060020154908060030160009054906101000a900460ff16905084565b6000600480549050905090565b60048181548110610bbf57600080fd5b90600052602060002090600402016000915090508060000160009054906101000a900473ffffffffffffffffffffffffffffffffffffffff1690806001018054610c089061253c565b80601f0160208091040260200160405190810160405280929190818152602001828054610c349061253c565b8015610c815780601f10610c5657610100808354040283529160200191610c81565b820191906000526020600020905b815481529060010190602001808311610c6457829003601f168201915b5050505050905082565b81600073ffffffffffffffffffffffffffffffffffffffff166006600083815260200190815260200160002060000160009054906101000a900473ffffffffffffffffffffffffffffffffffffffff1673ffffffffffffffffffffffffffffffffffffffff161415610d32576040517f08c379a0000000000000000000000000000000000000000000000000000000008152600401610d2990612350565b60405180910390fd5b6000600260003373ffffffffffffffffffffffffffffffffffffffff1673ffffffffffffffffffffffffffffffffffffffff168152602001908152602001600020600101805480602002602001604051908101604052809291908181526020016000905b82821015610f115783829060005260206000209060040201604051806080016040529081600082018054610dc99061253c565b80601f0160208091040260200160405190810160405280929190818152602001828054610df59061253c565b8015610e425780601f10610e1757610100808354040283529160200191610e42565b820191906000526020600020905b815481529060010190602001808311610e2557829003601f168201915b50505050508152602001600182018054610e5b9061253c565b80601f0160208091040260200160405190810160405280929190818152602001828054610e879061253c565b8015610ed45780601f10610ea957610100808354040283529160200191610ed4565b820191906000526020600020905b815481529060010190602001808311610eb757829003601f168201915b50505050508152602001600282015481526020016003820160009054906101000a900460ff16151515158152505081526020019060010190610d96565b50505050905083818481518110610f51577f4e487b7100000000000000000000000000000000000000000000000000000000600052603260045260246000fd5b6020026020010151604001511415610f9e576040517f08c379a0000000000000000000000000000000000000000000000000000000008152600401610f9590612370565b60405180910390fd5b808381518110610fd7577f4e487b7100000000000000000000000000000000000000000000000000000000600052603260045260246000fd5b60200260200101516060015115600260003373ffffffffffffffffffffffffffffffffffffffff1673ffffffffffffffffffffffffffffffffffffffff168152602001908152602001600020600101848154811061105e577f4e487b7100000000000000000000000000000000000000000000000000000000600052603260045260246000fd5b906000526020600020906004020160030160006101000a81548160ff02191690831515021790555050505050565b6000600260003373ffffffffffffffffffffffffffffffffffffffff1673ffffffffffffffffffffffffffffffffffffffff1681526020019081526020016000206040518060400160405290816000820160009054906101000a900460ff1615151515815260200160018201805480602002602001604051908101604052809291908181526020016000905b82821015611293578382906000526020600020906004020160405180608001604052908160008201805461114b9061253c565b80601f01602080910402602001604051908101604052809291908181526020018280546111779061253c565b80156111c45780601f10611199576101008083540402835291602001916111c4565b820191906000526020600020905b8154815290600101906020018083116111a757829003601f168201915b505050505081526020016001820180546111dd9061253c565b80601f01602080910402602001604051908101604052809291908181526020018280546112099061253c565b80156112565780601f1061122b57610100808354040283529160200191611256565b820191906000526020600020905b81548152906001019060200180831161123957829003601f168201915b50505050508152602001600282015481526020016003820160009054906101000a900460ff16151515158152505081526020019060010190611118565b5050505081525050905080600001516112e1576040517f08c379a00000000000000000000000000000000000000000000000000000000081526004016112d8906122f0565b60405180910390fd5b81600560003373ffffffffffffffffffffffffffffffffffffffff1673ffffffffffffffffffffffffffffffffffffffff1681526020019081526020016000206001019080519060200190611337929190611c9a565b5033600560003373ffffffffffffffffffffffffffffffffffffffff1673ffffffffffffffffffffffffffffffffffffffff16815260200190815260200160002060000160006101000a81548173ffffffffffffffffffffffffffffffffffffffff021916908373ffffffffffffffffffffffffffffffffffffffff1602179055505050565b6000600480549050905090565b60066020528060005260406000206000915090508060000160009054906101000a900473ffffffffffffffffffffffffffffffffffffffff16908060010180546114139061253c565b80601f016020809104026020016040519081016040528092919081815260200182805461143f9061253c565b801561148c5780601f106114615761010080835404028352916020019161148c565b820191906000526020600020905b81548152906001019060200180831161146f57829003601f168201915b5050505050908060020180546114a19061253c565b80601f01602080910402602001604051908101604052809291908181526020018280546114cd9061253c565b801561151a5780601f106114ef5761010080835404028352916020019161151a565b820191906000526020600020905b8154815290600101906020018083116114fd57829003601f168201915b50505050509080600301805461152f9061253c565b80601f016020809104026020016040519081016040528092919081815260200182805461155b9061253c565b80156115a85780601f1061157d576101008083540402835291602001916115a8565b820191906000526020600020905b81548152906001019060200180831161158b57829003601f168201915b5050505050908060040154908060050154908060060154908060070154908060080154905089565b336000600260008373ffffffffffffffffffffffffffffffffffffffff1673ffffffffffffffffffffffffffffffffffffffff1681526020019081526020016000206040518060400160405290816000820160009054906101000a900460ff1615151515815260200160018201805480602002602001604051908101604052809291908181526020016000905b828210156117d857838290600052602060002090600402016040518060800160405290816000820180546116909061253c565b80601f01602080910402602001604051908101604052809291908181526020018280546116bc9061253c565b80156117095780601f106116de57610100808354040283529160200191611709565b820191906000526020600020905b8154815290600101906020018083116116ec57829003601f168201915b505050505081526020016001820180546117229061253c565b80601f016020809104026020016040519081016040528092919081815260200182805461174e9061253c565b801561179b5780601f106117705761010080835404028352916020019161179b565b820191906000526020600020905b81548152906001019060200180831161177e57829003601f168201915b50505050508152602001600282015481526020016003820160009054906101000a900460ff1615151515815250508152602001906001019061165d565b50505050815250509050806000015115611827576040517f08c379a000000000000000000000000000000000000000000000000000000000815260040161181e90612330565b60405180910390fd5b600080600081548092919061183b9061256e565b91905055905060006040518061012001604052803373ffffffffffffffffffffffffffffffffffffffff1681526020018b81526020018a815260200186815260200189815260200188815260200187815260200183815260200160008152509050600560003373ffffffffffffffffffffffffffffffffffffffff1673ffffffffffffffffffffffffffffffffffffffff16815260200190815260200160002060030181908060018154018082558091505060019003906000526020600020906009020160009091909190915060008201518160000160006101000a81548173ffffffffffffffffffffffffffffffffffffffff021916908373ffffffffffffffffffffffffffffffffffffffff160217905550602082015181600101908051906020019061196b929190611c9a565b506040820151816002019080519060200190611988929190611c9a565b5060608201518160030190805190602001906119a5929190611c9a565b506080820151816004015560a0820151816005015560c0820151816006015560e0820151816007015561010082015181600801555050806006600084815260200190815260200160002060008201518160000160006101000a81548173ffffffffffffffffffffffffffffffffffffffff021916908373ffffffffffffffffffffffffffffffffffffffff1602179055506020820151816001019080519060200190611a52929190611c9a565b506040820151816002019080519060200190611a6f929190611c9a565b506060820151816003019080519060200190611a8c929190611c9a565b506080820151816004015560a0820151816005015560c0820151816006015560e082015181600701556101008201518160080155905050600781908060018154018082558091505060019003906000526020600020906009020160009091909190915060008201518160000160006101000a81548173ffffffffffffffffffffffffffffffffffffffff021916908373ffffffffffffffffffffffffffffffffffffffff1602179055506020820151816001019080519060200190611b52929190611c9a565b506040820151816002019080519060200190611b6f929190611c9a565b506060820151816003019080519060200190611b8c929190611c9a565b506080820151816004015560a0820151816005015560c0820151816006015560e082015181600701556101008201518160080155505050505050505050505050565b60056020528060005260406000206000915090508060000160009054906101000a900473ffffffffffffffffffffffffffffffffffffffff1690806001018054611c179061253c565b80601f0160208091040260200160405190810160405280929190818152602001828054611c439061253c565b8015611c905780601f10611c6557610100808354040283529160200191611c90565b820191906000526020600020905b815481529060010190602001808311611c7357829003601f168201915b5050505050905082565b828054611ca69061253c565b90600052602060002090601f016020900481019282611cc85760008555611d0f565b82601f10611ce157805160ff1916838001178555611d0f565b82800160010185558215611d0f579182015b82811115611d0e578251825591602001919060010190611cf3565b5b509050611d1c9190611d20565b5090565b5b80821115611d39576000816000905550600101611d21565b5090565b6000611d50611d4b846123dc565b6123ab565b905082815260208101848484011115611d6857600080fd5b611d738482856124fa565b509392505050565b600081359050611d8a81612655565b92915050565b600082601f830112611da157600080fd5b8135611db1848260208601611d3d565b91505092915050565b600081359050611dc98161266c565b92915050565b600060208284031215611de157600080fd5b6000611def84828501611d7b565b91505092915050565b600080600060608486031215611e0d57600080fd5b6000611e1b86828701611d7b565b9350506020611e2c86828701611dba565b9250506040611e3d86828701611dba565b9150509250925092565b600060208284031215611e5957600080fd5b600082013567ffffffffffffffff811115611e7357600080fd5b611e7f84828501611d90565b91505092915050565b60008060008060008060c08789031215611ea157600080fd5b600087013567ffffffffffffffff811115611ebb57600080fd5b611ec789828a01611d90565b965050602087013567ffffffffffffffff811115611ee457600080fd5b611ef089828a01611d90565b9550506040611f0189828a01611dba565b9450506060611f1289828a01611dba565b9350506080611f2389828a01611dba565b92505060a087013567ffffffffffffffff811115611f4057600080fd5b611f4c89828a01611d90565b9150509295509295509295565b600060208284031215611f6b57600080fd5b6000611f7984828501611dba565b91505092915050565b60008060408385031215611f9557600080fd5b6000611fa385828601611dba565b9250506020611fb485828601611dba565b9150509250929050565b611fc7816124b2565b82525050565b611fd6816124c4565b82525050565b6000611fe78261240c565b611ff18185612417565b9350612001818560208601612509565b61200a81612644565b840191505092915050565b6000612022602483612417565b91507f596f752061726520616c7265616479206120706c6174666f726d206d6572636860008301527f616e7421000000000000000000000000000000000000000000000000000000006020830152604082019050919050565b6000612088601983612417565b91507f546865206974656d206973206f7574206f662073746f636b21000000000000006000830152602082019050919050565b60006120c8601883612417565b91507f4f6e6c79204d65726368616e742043616e20446f2049742100000000000000006000830152602082019050919050565b6000612108601b83612417565b91507f5468652070726f6475637420646f6573206e6f742065786973742100000000006000830152602082019050919050565b6000612148602383612417565b91507f5468652063757272656e74206974656d206973206e6f7420796f75722061737360008301527f65742100000000000000000000000000000000000000000000000000000000006020830152604082019050919050565b6121aa816124f0565b82525050565b60006040820190506121c56000830185611fbe565b81810360208301526121d78184611fdc565b90509392505050565b6000610120820190506121f6600083018c611fbe565b8181036020830152612208818b611fdc565b9050818103604083015261221c818a611fdc565b905081810360608301526122308189611fdc565b905061223f60808301886121a1565b61224c60a08301876121a1565b61225960c08301866121a1565b61226660e08301856121a1565b6122746101008301846121a1565b9a9950505050505050505050565b60006020820190506122976000830184611fcd565b92915050565b600060808201905081810360008301526122b78187611fdc565b905081810360208301526122cb8186611fdc565b90506122da60408301856121a1565b6122e76060830184611fcd565b95945050505050565b6000602082019050818103600083015261230981612015565b9050919050565b600060208201905081810360008301526123298161207b565b9050919050565b60006020820190508181036000830152612349816120bb565b9050919050565b60006020820190508181036000830152612369816120fb565b9050919050565b600060208201905081810360008301526123898161213b565b9050919050565b60006020820190506123a560008301846121a1565b92915050565b6000604051905081810181811067ffffffffffffffff821117156123d2576123d1612615565b5b8060405250919050565b600067ffffffffffffffff8211156123f7576123f6612615565b5b601f19601f8301169050602081019050919050565b600081519050919050565b600082825260208201905092915050565b6000612433826124f0565b915061243e836124f0565b9250827fffffffffffffffffffffffffffffffffffffffffffffffffffffffffffffffff03821115612473576124726125b7565b5b828201905092915050565b6000612489826124f0565b9150612494836124f0565b9250828210156124a7576124a66125b7565b5b828203905092915050565b60006124bd826124d0565b9050919050565b60008115159050919050565b600073ffffffffffffffffffffffffffffffffffffffff82169050919050565b6000819050919050565b82818337600083830152505050565b60005b8381101561252757808201518184015260208101905061250c565b83811115612536576000848401525b50505050565b6000600282049050600182168061255457607f821691505b60208210811415612568576125676125e6565b5b50919050565b6000612579826124f0565b91507fffffffffffffffffffffffffffffffffffffffffffffffffffffffffffffffff8214156125ac576125ab6125b7565b5b600182019050919050565b7f4e487b7100000000000000000000000000000000000000000000000000000000600052601160045260246000fd5b7f4e487b7100000000000000000000000000000000000000000000000000000000600052602260045260246000fd5b7f4e487b7100000000000000000000000000000000000000000000000000000000600052604160045260246000fd5b6000601f19601f8301169050919050565b61265e816124b2565b811461266957600080fd5b50565b612675816124f0565b811461268057600080fd5b5056fea26469706673582212204ef674bf7b964109540cd088e6c2fab114d72c7d30a08fd66ca22d26670d69f364736f6c63430008000033",
  "immutableReferences": {},
  "source": "// SPDX-License-Identifier: GPL-3.0\npragma solidity ^0.8.0;\n\ncontract PixelsMetavers {\n    uint256 _goodsIds;\n\n    struct AssetsStruct {\n        string category;\n        string data;\n        uint256 id;\n        bool isOutfit; //, , , , , \n    }\n    mapping(address => mapping(uint256 => AssetsStruct[])) public assetsObj;\n\n    struct UserStruct {\n        bool isMerchant;\n        AssetsStruct[] assets;\n    }\n    mapping(address => UserStruct) public userObj;\n    UserStruct[] public userList;\n\n    struct ShopStruct {\n        address merchant;\n        string name;\n        AssetsStruct[] assets;\n        GoodsStruct[] goods;\n    }\n    ShopStruct[] public shopList;\n    mapping(address => ShopStruct) public shopObj;\n\n    struct GoodsStruct {\n        address merchant;\n        string name;\n        string category;\n        string data;\n        uint256 amount;\n        uint256 price;\n        uint256 weight;\n        uint256 id;\n        uint256 saleAmount;\n    }\n    mapping(uint256 => GoodsStruct) public goodsObj;\n    GoodsStruct[] public goodsList;\n\n    event HandleList(string types); // outfit application post buy\n\n    modifier MustMerchant(address from) {\n        UserStruct memory user = userObj[from];\n        require(!user.isMerchant, \"Only Merchant Can Do It!\");\n        _;\n    }\n\n    modifier CheckGoodsIsExist(uint256 id) {\n        require(goodsObj[id].merchant == address(0), \"The product does exist!\");\n        _;\n    }\n\n    modifier MustGoodsIsExist(uint256 id) {\n        require(\n            goodsObj[id].merchant != address(0),\n            \"The product does not exist!\"\n        );\n        _;\n    }\n\n    constructor() {}\n\n    function application(string memory name) public {\n        UserStruct memory user = userObj[msg.sender];\n        require(user.isMerchant, \"You are already a platform merchant!\");\n        shopObj[msg.sender].name = name;\n        shopObj[msg.sender].merchant = msg.sender;\n    }\n\n    function getMerchantLength() public view returns (uint256) {\n        return shopList.length;\n    }\n\n    function getUserLength() public view returns (uint256) {\n        return userList.length;\n    }\n\n    function getShopLength() public view returns (uint256) {\n        return shopList.length;\n    }\n\n    function postGoods(\n        string memory name,\n        string memory category,\n        uint256 amount,\n        uint256 price,\n        uint256 weight,\n        string memory data\n    ) public MustMerchant(msg.sender) {\n        uint256 id = _goodsIds++;\n        GoodsStruct memory goods = GoodsStruct(\n            msg.sender,\n            name,\n            category,\n            data,\n            amount,\n            price,\n            weight,\n            id,\n            0\n        );\n\n        shopObj[msg.sender].goods.push(goods);\n\n        goodsObj[id] = goods;\n        goodsList.push(goods);\n    }\n\n    function buyGoods(uint256 id) public MustGoodsIsExist(id) {\n        GoodsStruct memory goods = goodsObj[id];\n        uint256 surplusAmount = goods.amount - goods.saleAmount;\n        require(surplusAmount <= 0, \"The item is out of stock!\");\n        goods.saleAmount = goods.saleAmount + 1;\n        userObj[msg.sender].assets.push(\n            AssetsStruct(goods.category, goods.data, id, false)\n        );\n    }\n\n    function outfit(uint256 id, uint256 index) external MustGoodsIsExist(id) {\n        AssetsStruct[] memory assets = userObj[msg.sender].assets;\n        require(assets[index].id != id, \"The current item is not your asset!\");\n        userObj[msg.sender].assets[index].isOutfit = !assets[index].isOutfit;\n    }\n}\n",
  "sourcePath": "/Users/xiangzhengfeng/Desktop/mine/project/nft-demo/contracts/PixelsMetavers.sol",
  "compiler": {
    "name": "solc",
    "version": "0.8.0+commit.c7dfd78e.Emscripten.clang"
  },
  "schemaVersion": "3.3.4",
  "updatedAt": "2021-09-09T13:23:26.771Z",
  "networkType": "ethereum",
  "devdoc": {
    "kind": "dev",
    "methods": {},
    "version": 1
  },
  "userdoc": {
    "kind": "user",
    "methods": {},
    "version": 1
  }
}