{
  "contractName": "PixelsMetavers",
  "abi": [
    {
      "anonymous": false,
      "inputs": [
        {
          "indexed": false,
          "internalType": "uint256",
          "name": "id",
          "type": "uint256"
        },
        {
          "indexed": false,
          "internalType": "uint256",
          "name": "time",
          "type": "uint256"
        },
        {
          "indexed": false,
          "internalType": "string",
          "name": "content",
          "type": "string"
        },
        {
          "indexed": false,
          "internalType": "address",
          "name": "writer",
          "type": "address"
        },
        {
          "indexed": false,
          "internalType": "string",
          "name": "types",
          "type": "string"
        }
      ],
      "name": "HandleList",
      "type": "event"
    },
    {
      "inputs": [
        {
          "internalType": "uint256",
          "name": "",
          "type": "uint256"
        }
      ],
      "name": "lists",
      "outputs": [
        {
          "internalType": "uint256",
          "name": "id",
          "type": "uint256"
        },
        {
          "internalType": "uint256",
          "name": "time",
          "type": "uint256"
        },
        {
          "internalType": "string",
          "name": "content",
          "type": "string"
        },
        {
          "internalType": "address",
          "name": "writer",
          "type": "address"
        },
        {
          "internalType": "bool",
          "name": "isDone",
          "type": "bool"
        }
      ],
      "stateMutability": "view",
      "type": "function",
      "constant": true
    },
    {
      "inputs": [
        {
          "internalType": "string",
          "name": "content",
          "type": "string"
        }
      ],
      "name": "add",
      "outputs": [],
      "stateMutability": "nonpayable",
      "type": "function"
    },
    {
      "inputs": [],
      "name": "getLength",
      "outputs": [
        {
          "internalType": "uint256",
          "name": "",
          "type": "uint256"
        }
      ],
      "stateMutability": "view",
      "type": "function",
      "constant": true
    },
    {
      "inputs": [
        {
          "internalType": "uint256",
          "name": "id",
          "type": "uint256"
        }
      ],
      "name": "done",
      "outputs": [],
      "stateMutability": "nonpayable",
      "type": "function"
    },
    {
      "inputs": [
        {
          "internalType": "uint256",
          "name": "id",
          "type": "uint256"
        }
      ],
      "name": "remove",
      "outputs": [],
      "stateMutability": "nonpayable",
      "type": "function"
    }
  ],
  "bytecode": "0x608060405234801561001057600080fd5b506110b3806100206000396000f3fe608060405234801561001057600080fd5b50600436106100575760003560e01c80634cc822151461005c57806358a743c71461007857806396102cf414610094578063b0c8f9dc146100c8578063be1c766b146100e4575b600080fd5b61007660048036038101906100719190610a70565b610102565b005b610092600480360381019061008d9190610a70565b6102ef565b005b6100ae60048036038101906100a99190610a70565b61044c565b6040516100bf959493929190610cba565b60405180910390f35b6100e260048036038101906100dd9190610a2f565b610547565b005b6100ec6108c2565b6040516100f99190610c9f565b60405180910390f35b8060018054905081111561014b576040517f08c379a000000000000000000000000000000000000000000000000000000000815260040161014290610c7f565b60405180910390fd5b600081101561018f576040517f08c379a000000000000000000000000000000000000000000000000000000000815260040161018690610c7f565b60405180910390fd5b6000600183815481106101cb577f4e487b7100000000000000000000000000000000000000000000000000000000600052603260045260246000fd5b90600052602060002090600402019050600115158160030160149054906101000a900460ff161515146101fd57600080fd5b7f5a140a2ccdc8111510afcaa6c8bfead7ff1ede5c198e2012cdfaf671fb457a48834283600201336040516102359493929190610dd2565b60405180910390a160018381548110610277577f4e487b7100000000000000000000000000000000000000000000000000000000600052603260045260246000fd5b906000526020600020906004020160008082016000905560018201600090556002820160006102a691906108cf565b6003820160006101000a81549073ffffffffffffffffffffffffffffffffffffffff02191690556003820160146101000a81549060ff0219169055505082600081905550505050565b80600180549050811115610338576040517f08c379a000000000000000000000000000000000000000000000000000000000815260040161032f90610c7f565b60405180910390fd5b600081101561037c576040517f08c379a000000000000000000000000000000000000000000000000000000000815260040161037390610c7f565b60405180910390fd5b6000600183815481106103b8577f4e487b7100000000000000000000000000000000000000000000000000000000600052603260045260246000fd5b90600052602060002090600402019050600015158160030160149054906101000a900460ff161515146103ea57600080fd5b60018160030160146101000a81548160ff0219169083151502179055507f5a140a2ccdc8111510afcaa6c8bfead7ff1ede5c198e2012cdfaf671fb457a488342836002013360405161043f9493929190610d73565b60405180910390a1505050565b6001818154811061045c57600080fd5b906000526020600020906004020160009150905080600001549080600101549080600201805461048b90610f4d565b80601f01602080910402602001604051908101604052809291908181526020018280546104b790610f4d565b80156105045780601f106104d957610100808354040283529160200191610504565b820191906000526020600020905b8154815290600101906020018083116104e757829003601f168201915b5050505050908060030160009054906101000a900473ffffffffffffffffffffffffffffffffffffffff16908060030160149054906101000a900460ff16905085565b7f5a140a2ccdc8111510afcaa6c8bfead7ff1ede5c198e2012cdfaf671fb457a4860005442833360405161057e9493929190610d14565b60405180910390a160018054905060005414156106b85760016040518060a0016040528060005481526020014281526020018381526020013373ffffffffffffffffffffffffffffffffffffffff1681526020016000151581525090806001815401808255809150506001900390600052602060002090600402016000909190919091506000820151816000015560208201518160010155604082015181600201908051906020019061063292919061090f565b5060608201518160030160006101000a81548173ffffffffffffffffffffffffffffffffffffffff021916908373ffffffffffffffffffffffffffffffffffffffff16021790555060808201518160030160146101000a81548160ff02191690831515021790555050506000808154809291906106ae90610f7f565b91905055506108bf565b6000546001600054815481106106f7577f4e487b7100000000000000000000000000000000000000000000000000000000600052603260045260246000fd5b90600052602060002090600402016000018190555042600160005481548110610749577f4e487b7100000000000000000000000000000000000000000000000000000000600052603260045260246000fd5b9060005260206000209060040201600101819055508060016000548154811061079b577f4e487b7100000000000000000000000000000000000000000000000000000000600052603260045260246000fd5b906000526020600020906004020160020190805190602001906107bf92919061090f565b50336001600054815481106107fd577f4e487b7100000000000000000000000000000000000000000000000000000000600052603260045260246000fd5b906000526020600020906004020160030160006101000a81548173ffffffffffffffffffffffffffffffffffffffff021916908373ffffffffffffffffffffffffffffffffffffffff160217905550600060016000548154811061088a577f4e487b7100000000000000000000000000000000000000000000000000000000600052603260045260246000fd5b906000526020600020906004020160030160146101000a81548160ff0219169083151502179055506001805490506000819055505b50565b6000600180549050905090565b5080546108db90610f4d565b6000825580601f106108ed575061090c565b601f01602090049060005260206000209081019061090b9190610995565b5b50565b82805461091b90610f4d565b90600052602060002090601f01602090048101928261093d5760008555610984565b82601f1061095657805160ff1916838001178555610984565b82800160010185558215610984579182015b82811115610983578251825591602001919060010190610968565b5b5090506109919190610995565b5090565b5b808211156109ae576000816000905550600101610996565b5090565b60006109c56109c084610e62565b610e31565b9050828152602081018484840111156109dd57600080fd5b6109e8848285610f0b565b509392505050565b600082601f830112610a0157600080fd5b8135610a118482602086016109b2565b91505092915050565b600081359050610a2981611066565b92915050565b600060208284031215610a4157600080fd5b600082013567ffffffffffffffff811115610a5b57600080fd5b610a67848285016109f0565b91505092915050565b600060208284031215610a8257600080fd5b6000610a9084828501610a1a565b91505092915050565b610aa281610ec3565b82525050565b610ab181610ed5565b82525050565b6000610ac282610ea7565b610acc8185610eb2565b9350610adc818560208601610f1a565b610ae581611055565b840191505092915050565b60008154610afd81610f4d565b610b078186610eb2565b94506001821660008114610b225760018114610b3457610b67565b60ff1983168652602086019350610b67565b610b3d85610e92565b60005b83811015610b5f57815481890152600182019150602081019050610b40565b808801955050505b50505092915050565b6000610b7d600483610eb2565b91507f646f6e65000000000000000000000000000000000000000000000000000000006000830152602082019050919050565b6000610bbd600383610eb2565b91507f61646400000000000000000000000000000000000000000000000000000000006000830152602082019050919050565b6000610bfd600683610eb2565b91507f72656d6f766500000000000000000000000000000000000000000000000000006000830152602082019050919050565b6000610c3d600a83610eb2565b91507f6964206e6f2066756e64000000000000000000000000000000000000000000006000830152602082019050919050565b610c7981610f01565b82525050565b60006020820190508181036000830152610c9881610c30565b9050919050565b6000602082019050610cb46000830184610c70565b92915050565b600060a082019050610ccf6000830188610c70565b610cdc6020830187610c70565b8181036040830152610cee8186610ab7565b9050610cfd6060830185610a99565b610d0a6080830184610aa8565b9695505050505050565b600060a082019050610d296000830187610c70565b610d366020830186610c70565b8181036040830152610d488185610ab7565b9050610d576060830184610a99565b8181036080830152610d6881610bb0565b905095945050505050565b600060a082019050610d886000830187610c70565b610d956020830186610c70565b8181036040830152610da78185610af0565b9050610db66060830184610a99565b8181036080830152610dc781610b70565b905095945050505050565b600060a082019050610de76000830187610c70565b610df46020830186610c70565b8181036040830152610e068185610af0565b9050610e156060830184610a99565b8181036080830152610e2681610bf0565b905095945050505050565b6000604051905081810181811067ffffffffffffffff82111715610e5857610e57611026565b5b8060405250919050565b600067ffffffffffffffff821115610e7d57610e7c611026565b5b601f19601f8301169050602081019050919050565b60008190508160005260206000209050919050565b600081519050919050565b600082825260208201905092915050565b6000610ece82610ee1565b9050919050565b60008115159050919050565b600073ffffffffffffffffffffffffffffffffffffffff82169050919050565b6000819050919050565b82818337600083830152505050565b60005b83811015610f38578082015181840152602081019050610f1d565b83811115610f47576000848401525b50505050565b60006002820490506001821680610f6557607f821691505b60208210811415610f7957610f78610ff7565b5b50919050565b6000610f8a82610f01565b91507fffffffffffffffffffffffffffffffffffffffffffffffffffffffffffffffff821415610fbd57610fbc610fc8565b5b600182019050919050565b7f4e487b7100000000000000000000000000000000000000000000000000000000600052601160045260246000fd5b7f4e487b7100000000000000000000000000000000000000000000000000000000600052602260045260246000fd5b7f4e487b7100000000000000000000000000000000000000000000000000000000600052604160045260246000fd5b6000601f19601f8301169050919050565b61106f81610f01565b811461107a57600080fd5b5056fea26469706673582212203f3d60c8cc4e863527359e1d3e51be930fa863875d1e00c111185a3d57e0f8a164736f6c63430008000033",
  "immutableReferences": {},
  "source": "// SPDX-License-Identifier: GPL-3.0\npragma solidity >=0.8.0 <0.9.0;\n\ncontract PixelsMetavers {\n    uint256 index;\n\n    struct List {\n        uint256 id; // id\n        uint256 time; // \n        string content; // \n        address writer; // \n        bool isDone; // \n    }\n\n    List[] public lists;\n\n    event HandleList(\n        uint256 id,\n        uint256 time,\n        string content,\n        address writer,\n        string types\n    );\n\n    modifier LegalId(uint256 id) {\n        require(id <= lists.length, \"id no fund\");\n        require(id >= 0, \"id no fund\");\n        _;\n    }\n\n    function add(string memory content) public {\n        emit HandleList(index, block.timestamp, content, msg.sender, \"add\");\n        if (index == lists.length) {\n            lists.push(\n                List(index, block.timestamp, content, msg.sender, false)\n            );\n            index++;\n        } else {\n            lists[index].id = index;\n            lists[index].time = block.timestamp;\n            lists[index].content = content;\n            lists[index].writer = msg.sender;\n            lists[index].isDone = false;\n\n            index = lists.length;\n        }\n    }\n\n    function getLength() public view returns (uint256) {\n        return lists.length;\n    }\n\n    function done(uint256 id) public LegalId(id) {\n        List storage list = lists[id];\n        require(list.isDone == false);\n        list.isDone = true;\n        emit HandleList(id, block.timestamp, list.content, msg.sender, \"done\");\n    }\n\n    function remove(uint256 id) public LegalId(id) {\n        List storage list = lists[id];\n        require(list.isDone == true);\n        emit HandleList(id, block.timestamp, list.content, msg.sender, \"remove\");\n        delete lists[id];\n        index = id;\n    }\n}\n",
  "sourcePath": "/Users/xiangzhengfeng/Desktop/mine/project/nft-demo/contracts/PixelsMetavers.sol",
  "compiler": {
    "name": "solc",
    "version": "0.8.0+commit.c7dfd78e.Emscripten.clang"
  },
  "schemaVersion": "3.3.4",
  "updatedAt": "2021-09-06T15:33:11.187Z",
  "networkType": "ethereum",
  "devdoc": {
    "kind": "dev",
    "methods": {},
    "version": 1
  },
  "userdoc": {
    "kind": "user",
    "methods": {},
    "version": 1
  }
}