{
  "contractName": "PixelsMetavers",
  "abi": [
    {
      "inputs": [],
      "stateMutability": "nonpayable",
      "type": "constructor"
    },
    {
      "inputs": [
        {
          "internalType": "uint256",
          "name": "",
          "type": "uint256"
        }
      ],
      "name": "goods",
      "outputs": [
        {
          "internalType": "uint256",
          "name": "id",
          "type": "uint256"
        },
        {
          "internalType": "address",
          "name": "owner",
          "type": "address"
        },
        {
          "internalType": "string",
          "name": "name",
          "type": "string"
        },
        {
          "internalType": "string",
          "name": "category",
          "type": "string"
        },
        {
          "internalType": "string",
          "name": "data",
          "type": "string"
        },
        {
          "internalType": "uint256",
          "name": "price",
          "type": "uint256"
        },
        {
          "internalType": "bool",
          "name": "isSale",
          "type": "bool"
        },
        {
          "internalType": "bool",
          "name": "isOutfit",
          "type": "bool"
        },
        {
          "internalType": "string",
          "name": "bgColor",
          "type": "string"
        }
      ],
      "stateMutability": "view",
      "type": "function",
      "constant": true
    },
    {
      "inputs": [
        {
          "internalType": "uint256",
          "name": "",
          "type": "uint256"
        }
      ],
      "name": "goodsList",
      "outputs": [
        {
          "internalType": "uint256",
          "name": "",
          "type": "uint256"
        }
      ],
      "stateMutability": "view",
      "type": "function",
      "constant": true
    },
    {
      "inputs": [
        {
          "internalType": "address",
          "name": "",
          "type": "address"
        }
      ],
      "name": "user",
      "outputs": [
        {
          "internalType": "uint256",
          "name": "id",
          "type": "uint256"
        },
        {
          "internalType": "address",
          "name": "account",
          "type": "address"
        },
        {
          "internalType": "string",
          "name": "shopName",
          "type": "string"
        },
        {
          "internalType": "string",
          "name": "bgColor",
          "type": "string"
        },
        {
          "internalType": "string",
          "name": "gridColor",
          "type": "string"
        },
        {
          "internalType": "bool",
          "name": "withGrid",
          "type": "bool"
        },
        {
          "internalType": "bool",
          "name": "isMerchant",
          "type": "bool"
        }
      ],
      "stateMutability": "view",
      "type": "function",
      "constant": true
    },
    {
      "inputs": [],
      "name": "register",
      "outputs": [],
      "stateMutability": "nonpayable",
      "type": "function"
    },
    {
      "inputs": [
        {
          "internalType": "string",
          "name": "bgColor",
          "type": "string"
        },
        {
          "internalType": "string",
          "name": "gridColor",
          "type": "string"
        },
        {
          "internalType": "bool",
          "name": "withGrid",
          "type": "bool"
        }
      ],
      "name": "setConfig",
      "outputs": [],
      "stateMutability": "nonpayable",
      "type": "function"
    },
    {
      "inputs": [
        {
          "internalType": "string",
          "name": "name",
          "type": "string"
        }
      ],
      "name": "application",
      "outputs": [],
      "stateMutability": "nonpayable",
      "type": "function"
    },
    {
      "inputs": [],
      "name": "getGoodsList",
      "outputs": [
        {
          "internalType": "uint256[]",
          "name": "",
          "type": "uint256[]"
        }
      ],
      "stateMutability": "view",
      "type": "function",
      "constant": true
    },
    {
      "inputs": [
        {
          "internalType": "string",
          "name": "name",
          "type": "string"
        },
        {
          "internalType": "string",
          "name": "category",
          "type": "string"
        },
        {
          "internalType": "string",
          "name": "data",
          "type": "string"
        },
        {
          "internalType": "uint256",
          "name": "price",
          "type": "uint256"
        },
        {
          "internalType": "uint256",
          "name": "amount",
          "type": "uint256"
        },
        {
          "internalType": "string",
          "name": "bgColor",
          "type": "string"
        }
      ],
      "name": "postGoods",
      "outputs": [],
      "stateMutability": "nonpayable",
      "type": "function"
    },
    {
      "inputs": [
        {
          "internalType": "uint256",
          "name": "id",
          "type": "uint256"
        }
      ],
      "name": "buyGoods",
      "outputs": [],
      "stateMutability": "payable",
      "type": "function",
      "payable": true
    },
    {
      "inputs": [
        {
          "internalType": "uint256",
          "name": "id",
          "type": "uint256"
        },
        {
          "internalType": "bool",
          "name": "isOutfit",
          "type": "bool"
        }
      ],
      "name": "outfit",
      "outputs": [],
      "stateMutability": "nonpayable",
      "type": "function"
    },
    {
      "inputs": [
        {
          "internalType": "address",
          "name": "pmt721",
          "type": "address"
        }
      ],
      "name": "setPMT721",
      "outputs": [],
      "stateMutability": "nonpayable",
      "type": "function"
    }
  ],
  "bytecode": "0x6080604052600160065534801561001557600080fd5b5033600160006101000a81548173ffffffffffffffffffffffffffffffffffffffff021916908373ffffffffffffffffffffffffffffffffffffffff160217905550612a02806100666000396000f3fe60806040526004361061009c5760003560e01c806383f8f54c1161006457806383f8f54c146101a65780638f4babfb146101d15780639946d10a146101ed578063c8b9565014610216578063d45237601461023f578063f05bd361146102685761009c565b80631aa3a008146100a157806328d27f09146100b85780632f724394146100f5578063749aa9371461013a57806381e7e20e14610163575b600080fd5b3480156100ad57600080fd5b506100b6610291565b005b3480156100c457600080fd5b506100df60048036038101906100da9190611e3e565b6104e3565b6040516100ec91906125d0565b60405180910390f35b34801561010157600080fd5b5061011c60048036038101906101179190611e3e565b610507565b6040516101319998979695949392919061266f565b60405180910390f35b34801561014657600080fd5b50610161600480360381019061015c9190611c43565b6107af565b005b34801561016f57600080fd5b5061018a60048036038101906101859190611c43565b610884565b60405161019d97969594939291906125eb565b60405180910390f35b3480156101b257600080fd5b506101bb610a98565b6040516101c8919061240e565b60405180910390f35b6101eb60048036038101906101e69190611e3e565b610af0565b005b3480156101f957600080fd5b50610214600480360381019061020f9190611cd6565b61102d565b005b34801561022257600080fd5b5061023d60048036038101906102389190611c95565b61120e565b005b34801561024b57600080fd5b5061026660048036038101906102619190611e90565b61147c565b005b34801561027457600080fd5b5061028f600480360381019061028a9190611d55565b6116f5565b005b6001600654146102d6576040517f08c379a00000000000000000000000000000000000000000000000000000000081526004016102cd90612450565b60405180910390fd5b6000600681905550600073ffffffffffffffffffffffffffffffffffffffff16600360003373ffffffffffffffffffffffffffffffffffffffff1673ffffffffffffffffffffffffffffffffffffffff16815260200190815260200160002060010160009054906101000a900473ffffffffffffffffffffffffffffffffffffffff1673ffffffffffffffffffffffffffffffffffffffff16146103af576040517f08c379a00000000000000000000000000000000000000000000000000000000081526004016103a690612430565b60405180910390fd5b629c400060025411156103f7576040517f08c379a00000000000000000000000000000000000000000000000000000000081526004016103ee906124f0565b60405180910390fd5b6002600081548092919061040a906128a0565b919050555033600360003373ffffffffffffffffffffffffffffffffffffffff1673ffffffffffffffffffffffffffffffffffffffff16815260200190815260200160002060010160006101000a81548173ffffffffffffffffffffffffffffffffffffffff021916908373ffffffffffffffffffffffffffffffffffffffff160217905550600254600360003373ffffffffffffffffffffffffffffffffffffffff1673ffffffffffffffffffffffffffffffffffffffff168152602001908152602001600020600001819055506001600681905550565b600581815481106104f357600080fd5b906000526020600020016000915090505481565b60046020528060005260406000206000915090508060000154908060010160009054906101000a900473ffffffffffffffffffffffffffffffffffffffff16908060020180546105569061286e565b80601f01602080910402602001604051908101604052809291908181526020018280546105829061286e565b80156105cf5780601f106105a4576101008083540402835291602001916105cf565b820191906000526020600020905b8154815290600101906020018083116105b257829003601f168201915b5050505050908060030180546105e49061286e565b80601f01602080910402602001604051908101604052809291908181526020018280546106109061286e565b801561065d5780601f106106325761010080835404028352916020019161065d565b820191906000526020600020905b81548152906001019060200180831161064057829003601f168201915b5050505050908060040180546106729061286e565b80601f016020809104026020016040519081016040528092919081815260200182805461069e9061286e565b80156106eb5780601f106106c0576101008083540402835291602001916106eb565b820191906000526020600020905b8154815290600101906020018083116106ce57829003601f168201915b5050505050908060050154908060060160009054906101000a900460ff16908060060160019054906101000a900460ff169080600701805461072c9061286e565b80601f01602080910402602001604051908101604052809291908181526020018280546107589061286e565b80156107a55780601f1061077a576101008083540402835291602001916107a5565b820191906000526020600020905b81548152906001019060200180831161078857829003601f168201915b5050505050905089565b33600160009054906101000a900473ffffffffffffffffffffffffffffffffffffffff1673ffffffffffffffffffffffffffffffffffffffff168173ffffffffffffffffffffffffffffffffffffffff1614610840576040517f08c379a000000000000000000000000000000000000000000000000000000000815260040161083790612570565b60405180910390fd5b816000806101000a81548173ffffffffffffffffffffffffffffffffffffffff021916908373ffffffffffffffffffffffffffffffffffffffff1602179055505050565b60036020528060005260406000206000915090508060000154908060010160009054906101000a900473ffffffffffffffffffffffffffffffffffffffff16908060020180546108d39061286e565b80601f01602080910402602001604051908101604052809291908181526020018280546108ff9061286e565b801561094c5780601f106109215761010080835404028352916020019161094c565b820191906000526020600020905b81548152906001019060200180831161092f57829003601f168201915b5050505050908060030180546109619061286e565b80601f016020809104026020016040519081016040528092919081815260200182805461098d9061286e565b80156109da5780601f106109af576101008083540402835291602001916109da565b820191906000526020600020905b8154815290600101906020018083116109bd57829003601f168201915b5050505050908060040180546109ef9061286e565b80601f0160208091040260200160405190810160405280929190818152602001828054610a1b9061286e565b8015610a685780601f10610a3d57610100808354040283529160200191610a68565b820191906000526020600020905b815481529060010190602001808311610a4b57829003601f168201915b5050505050908060050160009054906101000a900460ff16908060050160019054906101000a900460ff16905087565b60606005805480602002602001604051908101604052809291908181526020018280548015610ae657602002820191906000526020600020905b815481526020019060010190808311610ad2575b5050505050905090565b8060008054906101000a900473ffffffffffffffffffffffffffffffffffffffff1673ffffffffffffffffffffffffffffffffffffffff1663342de179826040518263ffffffff1660e01b8152600401610b4a91906125d0565b60206040518083038186803b158015610b6257600080fd5b505afa158015610b76573d6000803e3d6000fd5b505050506040513d601f19601f82011682018060405250810190610b9a9190611c6c565b610bd9576040517f08c379a0000000000000000000000000000000000000000000000000000000008152600401610bd090612530565b60405180910390fd5b33600073ffffffffffffffffffffffffffffffffffffffff16600360008373ffffffffffffffffffffffffffffffffffffffff1673ffffffffffffffffffffffffffffffffffffffff16815260200190815260200160002060010160009054906101000a900473ffffffffffffffffffffffffffffffffffffffff1673ffffffffffffffffffffffffffffffffffffffff161415610cac576040517f08c379a0000000000000000000000000000000000000000000000000000000008152600401610ca3906124d0565b60405180910390fd5b600160065414610cf1576040517f08c379a0000000000000000000000000000000000000000000000000000000008152600401610ce890612450565b60405180910390fd5b60006006819055506004600084815260200190815260200160002060050154341015610d52576040517f08c379a0000000000000000000000000000000000000000000000000000000008152600401610d4990612490565b60405180910390fd5b6004600084815260200190815260200160002060060160009054906101000a900460ff16610db5576040517f08c379a0000000000000000000000000000000000000000000000000000000008152600401610dac90612550565b60405180910390fd5b60006004600085815260200190815260200160002060010160009054906101000a900473ffffffffffffffffffffffffffffffffffffffff1673ffffffffffffffffffffffffffffffffffffffff1634600067ffffffffffffffff811115610e46577f4e487b7100000000000000000000000000000000000000000000000000000000600052604160045260246000fd5b6040519080825280601f01601f191660200182016040528015610e785781602001600182028036833780820191505090505b50604051610e8691906123c0565b60006040518083038185875af1925050503d8060008114610ec3576040519150601f19603f3d011682016040523d82523d6000602084013e610ec8565b606091505b5050905080610f0c576040517f08c379a0000000000000000000000000000000000000000000000000000000008152600401610f03906125b0565b60405180910390fd5b60008054906101000a900473ffffffffffffffffffffffffffffffffffffffff1673ffffffffffffffffffffffffffffffffffffffff166342842e0e3033876040518463ffffffff1660e01b8152600401610f69939291906123d7565b600060405180830381600087803b158015610f8357600080fd5b505af1158015610f97573d6000803e3d6000fd5b50505050336004600086815260200190815260200160002060010160006101000a81548173ffffffffffffffffffffffffffffffffffffffff021916908373ffffffffffffffffffffffffffffffffffffffff16021790555060006004600086815260200190815260200160002060060160006101000a81548160ff021916908315150217905550506001600681905550505050565b33600073ffffffffffffffffffffffffffffffffffffffff16600360008373ffffffffffffffffffffffffffffffffffffffff1673ffffffffffffffffffffffffffffffffffffffff16815260200190815260200160002060010160009054906101000a900473ffffffffffffffffffffffffffffffffffffffff1673ffffffffffffffffffffffffffffffffffffffff161415611100576040517f08c379a00000000000000000000000000000000000000000000000000000000081526004016110f7906124d0565b60405180910390fd5b83600360003373ffffffffffffffffffffffffffffffffffffffff1673ffffffffffffffffffffffffffffffffffffffff1681526020019081526020016000206003019080519060200190611156929190611acf565b5082600360003373ffffffffffffffffffffffffffffffffffffffff1673ffffffffffffffffffffffffffffffffffffffff16815260200190815260200160002060040190805190602001906111ad929190611acf565b5081600360003373ffffffffffffffffffffffffffffffffffffffff1673ffffffffffffffffffffffffffffffffffffffff16815260200190815260200160002060050160006101000a81548160ff02191690831515021790555050505050565b33600073ffffffffffffffffffffffffffffffffffffffff16600360008373ffffffffffffffffffffffffffffffffffffffff1673ffffffffffffffffffffffffffffffffffffffff16815260200190815260200160002060010160009054906101000a900473ffffffffffffffffffffffffffffffffffffffff1673ffffffffffffffffffffffffffffffffffffffff1614156112e1576040517f08c379a00000000000000000000000000000000000000000000000000000000081526004016112d8906124d0565b60405180910390fd5b600160065414611326576040517f08c379a000000000000000000000000000000000000000000000000000000000815260040161131d90612450565b60405180910390fd5b6000600681905550600360003373ffffffffffffffffffffffffffffffffffffffff1673ffffffffffffffffffffffffffffffffffffffff16815260200190815260200160002060050160019054906101000a900460ff16156113be576040517f08c379a00000000000000000000000000000000000000000000000000000000081526004016113b590612470565b60405180910390fd5b6001600360003373ffffffffffffffffffffffffffffffffffffffff1673ffffffffffffffffffffffffffffffffffffffff16815260200190815260200160002060050160016101000a81548160ff02191690831515021790555081600360003373ffffffffffffffffffffffffffffffffffffffff1673ffffffffffffffffffffffffffffffffffffffff168152602001908152602001600020600201908051906020019061146f929190611acf565b5060016006819055505050565b8160008054906101000a900473ffffffffffffffffffffffffffffffffffffffff1673ffffffffffffffffffffffffffffffffffffffff1663342de179826040518263ffffffff1660e01b81526004016114d691906125d0565b60206040518083038186803b1580156114ee57600080fd5b505afa158015611502573d6000803e3d6000fd5b505050506040513d601f19601f820116820180604052508101906115269190611c6c565b611565576040517f08c379a000000000000000000000000000000000000000000000000000000000815260040161155c90612530565b60405180910390fd5b6001600654146115aa576040517f08c379a00000000000000000000000000000000000000000000000000000000081526004016115a190612450565b60405180910390fd5b60006006819055506004600084815260200190815260200160002060010160009054906101000a900473ffffffffffffffffffffffffffffffffffffffff1673ffffffffffffffffffffffffffffffffffffffff163373ffffffffffffffffffffffffffffffffffffffff1614611656576040517f08c379a000000000000000000000000000000000000000000000000000000000815260040161164d90612590565b60405180910390fd5b6004600084815260200190815260200160002060060160009054906101000a900460ff16156116ba576040517f08c379a00000000000000000000000000000000000000000000000000000000081526004016116b1906124b0565b60405180910390fd5b816004600085815260200190815260200160002060060160016101000a81548160ff0219169083151502179055506001600681905550505050565b60016006541461173a576040517f08c379a000000000000000000000000000000000000000000000000000000000815260040161173190612450565b60405180910390fd5b6000600681905550600360003373ffffffffffffffffffffffffffffffffffffffff1673ffffffffffffffffffffffffffffffffffffffff16815260200190815260200160002060050160019054906101000a900460ff166117d1576040517f08c379a00000000000000000000000000000000000000000000000000000000081526004016117c890612510565b60405180910390fd5b60005b82811015611abe5760008054906101000a900473ffffffffffffffffffffffffffffffffffffffff1673ffffffffffffffffffffffffffffffffffffffff16631249c58b6040518163ffffffff1660e01b8152600401600060405180830381600087803b15801561184457600080fd5b505af1158015611858573d6000803e3d6000fd5b5050505060008060009054906101000a900473ffffffffffffffffffffffffffffffffffffffff1673ffffffffffffffffffffffffffffffffffffffff1663ef1e7df36040518163ffffffff1660e01b815260040160206040518083038186803b1580156118c557600080fd5b505afa1580156118d9573d6000803e3d6000fd5b505050506040513d601f19601f820116820180604052508101906118fd9190611e67565b90506040518061012001604052808281526020013373ffffffffffffffffffffffffffffffffffffffff16815260200189815260200188815260200187815260200186815260200160011515815260200160001515815260200184815250600460008381526020019081526020016000206000820151816000015560208201518160010160006101000a81548173ffffffffffffffffffffffffffffffffffffffff021916908373ffffffffffffffffffffffffffffffffffffffff16021790555060408201518160020190805190602001906119db929190611acf565b5060608201518160030190805190602001906119f8929190611acf565b506080820151816004019080519060200190611a15929190611acf565b5060a0820151816005015560c08201518160060160006101000a81548160ff02191690831515021790555060e08201518160060160016101000a81548160ff021916908315150217905550610100820151816007019080519060200190611a7d929190611acf565b509050506005819080600181540180825580915050600190039060005260206000200160009091909190915055508080611ab6906128a0565b9150506117d4565b506001600681905550505050505050565b828054611adb9061286e565b90600052602060002090601f016020900481019282611afd5760008555611b44565b82601f10611b1657805160ff1916838001178555611b44565b82800160010185558215611b44579182015b82811115611b43578251825591602001919060010190611b28565b5b509050611b519190611b55565b5090565b5b80821115611b6e576000816000905550600101611b56565b5090565b6000611b85611b8084612749565b612718565b905082815260208101848484011115611b9d57600080fd5b611ba884828561282c565b509392505050565b600081359050611bbf81612987565b92915050565b600081359050611bd48161299e565b92915050565b600081519050611be98161299e565b92915050565b600082601f830112611c0057600080fd5b8135611c10848260208601611b72565b91505092915050565b600081359050611c28816129b5565b92915050565b600081519050611c3d816129b5565b92915050565b600060208284031215611c5557600080fd5b6000611c6384828501611bb0565b91505092915050565b600060208284031215611c7e57600080fd5b6000611c8c84828501611bda565b91505092915050565b600060208284031215611ca757600080fd5b600082013567ffffffffffffffff811115611cc157600080fd5b611ccd84828501611bef565b91505092915050565b600080600060608486031215611ceb57600080fd5b600084013567ffffffffffffffff811115611d0557600080fd5b611d1186828701611bef565b935050602084013567ffffffffffffffff811115611d2e57600080fd5b611d3a86828701611bef565b9250506040611d4b86828701611bc5565b9150509250925092565b60008060008060008060c08789031215611d6e57600080fd5b600087013567ffffffffffffffff811115611d8857600080fd5b611d9489828a01611bef565b965050602087013567ffffffffffffffff811115611db157600080fd5b611dbd89828a01611bef565b955050604087013567ffffffffffffffff811115611dda57600080fd5b611de689828a01611bef565b9450506060611df789828a01611c19565b9350506080611e0889828a01611c19565b92505060a087013567ffffffffffffffff811115611e2557600080fd5b611e3189828a01611bef565b9150509295509295509295565b600060208284031215611e5057600080fd5b6000611e5e84828501611c19565b91505092915050565b600060208284031215611e7957600080fd5b6000611e8784828501611c2e565b91505092915050565b60008060408385031215611ea357600080fd5b6000611eb185828601611c19565b9250506020611ec285828601611bc5565b9150509250929050565b6000611ed883836123a2565b60208301905092915050565b611eed816127e4565b82525050565b6000611efe82612789565b611f0881856127b7565b9350611f1383612779565b8060005b83811015611f44578151611f2b8882611ecc565b9750611f36836127aa565b925050600181019050611f17565b5085935050505092915050565b611f5a816127f6565b82525050565b6000611f6b82612794565b611f7581856127c8565b9350611f8581856020860161283b565b80840191505092915050565b6000611f9c8261279f565b611fa681856127d3565b9350611fb681856020860161283b565b611fbf81612976565b840191505092915050565b6000611fd76020836127d3565b91507f596f752061726520616c7265616479206120706c6174666f726d2075736572216000830152602082019050919050565b60006120176014836127d3565b91507f5468652046756e6374696f6e3a204c4f434b45440000000000000000000000006000830152602082019050919050565b60006120576024836127d3565b91507f596f752061726520616c7265616479206120706c6174666f726d206d6572636860008301527f616e7421000000000000000000000000000000000000000000000000000000006020830152604082019050919050565b60006120bd6039836127d3565b91507f54686520616d6f756e742070616964206973206c6f776572207468616e20746860008301527f65207072696365206f662074686520636f6d6d6f6469747921000000000000006020830152604082019050919050565b60006121236012836127d3565b91507f54686520676f6f6473206e6f2073616c652100000000000000000000000000006000830152602082019050919050565b60006121636014836127d3565b91507f4f6e6c7920557365722043616e20446f204974210000000000000000000000006000830152602082019050919050565b60006121a3603d836127d3565b91507f546865206e756d626572206861732065786365656465642074686520746f746160008301527f6c20706f70756c6174696f6e206f662074686520756e697665727365210000006020830152604082019050919050565b60006122096018836127d3565b91507f4f6e6c79204d65726368616e742043616e20446f2049742100000000000000006000830152602082019050919050565b6000612249601b836127d3565b91507f5468652070726f6475637420646f6573206e6f742065786973742100000000006000830152602082019050919050565b60006122896010836127d3565b91507f54686520676f6f64732073616c656421000000000000000000000000000000006000830152602082019050919050565b60006122c96015836127d3565b91507f4f6e6c79204f776e65722043616e20446f2049742100000000000000000000006000830152602082019050919050565b60006123096023836127d3565b91507f5468652063757272656e74206974656d206973206e6f7420796f75722061737360008301527f65742100000000000000000000000000000000000000000000000000000000006020830152604082019050919050565b600061236f6010836127d3565b91507f5472616e73666572206661696c65642e000000000000000000000000000000006000830152602082019050919050565b6123ab81612822565b82525050565b6123ba81612822565b82525050565b60006123cc8284611f60565b915081905092915050565b60006060820190506123ec6000830186611ee4565b6123f96020830185611ee4565b61240660408301846123b1565b949350505050565b600060208201905081810360008301526124288184611ef3565b905092915050565b6000602082019050818103600083015261244981611fca565b9050919050565b600060208201905081810360008301526124698161200a565b9050919050565b600060208201905081810360008301526124898161204a565b9050919050565b600060208201905081810360008301526124a9816120b0565b9050919050565b600060208201905081810360008301526124c981612116565b9050919050565b600060208201905081810360008301526124e981612156565b9050919050565b6000602082019050818103600083015261250981612196565b9050919050565b60006020820190508181036000830152612529816121fc565b9050919050565b600060208201905081810360008301526125498161223c565b9050919050565b600060208201905081810360008301526125698161227c565b9050919050565b60006020820190508181036000830152612589816122bc565b9050919050565b600060208201905081810360008301526125a9816122fc565b9050919050565b600060208201905081810360008301526125c981612362565b9050919050565b60006020820190506125e560008301846123b1565b92915050565b600060e082019050612600600083018a6123b1565b61260d6020830189611ee4565b818103604083015261261f8188611f91565b905081810360608301526126338187611f91565b905081810360808301526126478186611f91565b905061265660a0830185611f51565b61266360c0830184611f51565b98975050505050505050565b600061012082019050612685600083018c6123b1565b612692602083018b611ee4565b81810360408301526126a4818a611f91565b905081810360608301526126b88189611f91565b905081810360808301526126cc8188611f91565b90506126db60a08301876123b1565b6126e860c0830186611f51565b6126f560e0830185611f51565b8181036101008301526127088184611f91565b90509a9950505050505050505050565b6000604051905081810181811067ffffffffffffffff8211171561273f5761273e612947565b5b8060405250919050565b600067ffffffffffffffff82111561276457612763612947565b5b601f19601f8301169050602081019050919050565b6000819050602082019050919050565b600081519050919050565b600081519050919050565b600081519050919050565b6000602082019050919050565b600082825260208201905092915050565b600081905092915050565b600082825260208201905092915050565b60006127ef82612802565b9050919050565b60008115159050919050565b600073ffffffffffffffffffffffffffffffffffffffff82169050919050565b6000819050919050565b82818337600083830152505050565b60005b8381101561285957808201518184015260208101905061283e565b83811115612868576000848401525b50505050565b6000600282049050600182168061288657607f821691505b6020821081141561289a57612899612918565b5b50919050565b60006128ab82612822565b91507fffffffffffffffffffffffffffffffffffffffffffffffffffffffffffffffff8214156128de576128dd6128e9565b5b600182019050919050565b7f4e487b7100000000000000000000000000000000000000000000000000000000600052601160045260246000fd5b7f4e487b7100000000000000000000000000000000000000000000000000000000600052602260045260246000fd5b7f4e487b7100000000000000000000000000000000000000000000000000000000600052604160045260246000fd5b6000601f19601f8301169050919050565b612990816127e4565b811461299b57600080fd5b50565b6129a7816127f6565b81146129b257600080fd5b50565b6129be81612822565b81146129c957600080fd5b5056fea2646970667358221220c305e19abe9a85f2a1194c56985b3fb00be59e612e768bcf0154cbaac91df79e64736f6c63430008000033",
  "immutableReferences": {},
  "source": "// SPDX-License-Identifier: GPL-3.0\npragma solidity ^0.8.0;\n\nimport \"./IPMT721.sol\";\n\ncontract PixelsMetavers {\n    IPMT721 PMT721;\n    address owner;\n    modifier MustOwner(address from) {\n        require(from == owner, \"Only Owner Can Do It!\");\n        _;\n    }\n\n    uint256 userAmount;\n\n    struct UserStruct {\n        uint256 id;\n        address account;\n        string shopName;\n        string bgColor;\n        string gridColor;\n        bool withGrid;\n        bool isMerchant;\n    }\n    mapping(address => UserStruct) public user;\n\n    struct GoodsStruct {\n        uint256 id;\n        address owner;\n        string name;\n        string category;\n        string data;\n        uint256 price;\n        bool isSale;\n        bool isOutfit;\n        string bgColor;\n    }\n    mapping(uint256 => GoodsStruct) public goods;\n\n    uint256[] public goodsList;\n\n    modifier MustUser(address from) {\n        require(user[from].account != address(0), \"Only User Can Do It!\");\n        _;\n    }\n\n    modifier MustGoodsIsExist(uint256 id) {\n        require(IPMT721(PMT721).exits(id), \"The product does not exist!\");\n        _;\n    }\n\n    uint256 private unlocked = 1;\n    modifier Lock() {\n        require(unlocked == 1, \"The Function: LOCKED\");\n        unlocked = 0;\n        _;\n        unlocked = 1;\n    }\n\n    constructor() {\n        owner = msg.sender;\n    }\n\n    function register() public Lock {\n        require(\n            user[msg.sender].account == address(0),\n            \"You are already a platform user!\"\n        );\n        require(\n            userAmount <= 10240000,\n            \"The number has exceeded the total population of the universe!\"\n        );\n        userAmount++;\n        user[msg.sender].account = msg.sender;\n        user[msg.sender].id = userAmount;\n    }\n\n    function setConfig(\n        string memory bgColor,\n        string memory gridColor,\n        bool withGrid\n    ) public MustUser(msg.sender) {\n        user[msg.sender].bgColor = bgColor;\n        user[msg.sender].gridColor = gridColor;\n        user[msg.sender].withGrid = withGrid;\n    }\n\n    function application(string memory name) public MustUser(msg.sender) Lock {\n        require(\n            !user[msg.sender].isMerchant,\n            \"You are already a platform merchant!\"\n        );\n        user[msg.sender].isMerchant = true;\n        user[msg.sender].shopName = name;\n    }\n\n    function getGoodsList() public view returns (uint256[] memory) {\n        return goodsList;\n    }\n\n    function postGoods(\n        string memory name,\n        string memory category,\n        string memory data,\n        uint256 price,\n        uint256 amount,\n        string memory bgColor\n    ) public Lock {\n        require(user[msg.sender].isMerchant, \"Only Merchant Can Do It!\");\n        for (uint256 i; i < amount; i++) {\n            IPMT721(PMT721).mint();\n            uint256 currentID = IPMT721(PMT721).getCurrentID();\n\n            goods[currentID] = GoodsStruct(\n                currentID,\n                msg.sender,\n                name,\n                category,\n                data,\n                price,\n                true,\n                false,\n                bgColor\n            );\n            goodsList.push(currentID);\n        }\n    }\n\n    function buyGoods(uint256 id)\n        public\n        payable\n        MustGoodsIsExist(id)\n        MustUser(msg.sender)\n        Lock\n    {\n        require(\n            msg.value >= goods[id].price,\n            \"The amount paid is lower than the price of the commodity!\"\n        );\n        require(goods[id].isSale, \"The goods saled!\");\n\n        (bool success, ) = goods[id].owner.call{value: msg.value}(new bytes(0));\n        require(success, \"Transfer failed.\");\n\n        IPMT721(PMT721).safeTransferFrom(address(this), msg.sender, id);\n\n        goods[id].owner = msg.sender;\n        goods[id].isSale = false;\n    }\n\n    function outfit(uint256 id, bool isOutfit)\n        public\n        MustGoodsIsExist(id)\n        Lock\n    {\n        require(\n            msg.sender == goods[id].owner,\n            \"The current item is not your asset!\"\n        );\n        require(!goods[id].isSale, \"The goods no sale!\");\n        goods[id].isOutfit = isOutfit;\n    }\n\n    function setPMT721(address pmt721) public MustOwner(msg.sender) {\n        PMT721 = IPMT721(pmt721);\n    }\n}\n",
  "sourcePath": "/Users/xiangzhengfeng/Desktop/mine/project/nft-demo/contracts/PixelsMetavers.sol",
  "compiler": {
    "name": "solc",
    "version": "0.8.0+commit.c7dfd78e.Emscripten.clang"
  },
  "schemaVersion": "3.3.4",
  "updatedAt": "2021-09-14T09:30:23.934Z",
  "networkType": "ethereum",
  "devdoc": {
    "kind": "dev",
    "methods": {},
    "version": 1
  },
  "userdoc": {
    "kind": "user",
    "methods": {},
    "version": 1
  }
}