{
  "contractName": "PixelsMetavers",
  "abi": [
    {
      "inputs": [],
      "stateMutability": "nonpayable",
      "type": "constructor"
    },
    {
      "anonymous": false,
      "inputs": [
        {
          "indexed": false,
          "internalType": "string",
          "name": "types",
          "type": "string"
        }
      ],
      "name": "HandleList",
      "type": "event"
    },
    {
      "inputs": [
        {
          "internalType": "address",
          "name": "",
          "type": "address"
        },
        {
          "internalType": "uint256",
          "name": "",
          "type": "uint256"
        }
      ],
      "name": "assetsObj",
      "outputs": [
        {
          "internalType": "string",
          "name": "category",
          "type": "string"
        },
        {
          "internalType": "string",
          "name": "data",
          "type": "string"
        },
        {
          "internalType": "uint256",
          "name": "id",
          "type": "uint256"
        },
        {
          "internalType": "bool",
          "name": "isOutfit",
          "type": "bool"
        },
        {
          "internalType": "uint256",
          "name": "index",
          "type": "uint256"
        }
      ],
      "stateMutability": "view",
      "type": "function",
      "constant": true
    },
    {
      "inputs": [
        {
          "internalType": "uint256",
          "name": "",
          "type": "uint256"
        }
      ],
      "name": "goodsList",
      "outputs": [
        {
          "internalType": "address",
          "name": "owner",
          "type": "address"
        },
        {
          "internalType": "string",
          "name": "name",
          "type": "string"
        },
        {
          "internalType": "string",
          "name": "category",
          "type": "string"
        },
        {
          "internalType": "string",
          "name": "data",
          "type": "string"
        },
        {
          "internalType": "uint256",
          "name": "price",
          "type": "uint256"
        },
        {
          "internalType": "uint256",
          "name": "id",
          "type": "uint256"
        },
        {
          "internalType": "bool",
          "name": "isSale",
          "type": "bool"
        },
        {
          "internalType": "uint256",
          "name": "index",
          "type": "uint256"
        }
      ],
      "stateMutability": "view",
      "type": "function",
      "constant": true
    },
    {
      "inputs": [
        {
          "internalType": "uint256",
          "name": "",
          "type": "uint256"
        }
      ],
      "name": "goodsObj",
      "outputs": [
        {
          "internalType": "address",
          "name": "owner",
          "type": "address"
        },
        {
          "internalType": "string",
          "name": "name",
          "type": "string"
        },
        {
          "internalType": "string",
          "name": "category",
          "type": "string"
        },
        {
          "internalType": "string",
          "name": "data",
          "type": "string"
        },
        {
          "internalType": "uint256",
          "name": "price",
          "type": "uint256"
        },
        {
          "internalType": "uint256",
          "name": "id",
          "type": "uint256"
        },
        {
          "internalType": "bool",
          "name": "isSale",
          "type": "bool"
        },
        {
          "internalType": "uint256",
          "name": "index",
          "type": "uint256"
        }
      ],
      "stateMutability": "view",
      "type": "function",
      "constant": true
    },
    {
      "inputs": [
        {
          "internalType": "uint256",
          "name": "",
          "type": "uint256"
        }
      ],
      "name": "shopList",
      "outputs": [
        {
          "internalType": "address",
          "name": "owner",
          "type": "address"
        },
        {
          "internalType": "string",
          "name": "name",
          "type": "string"
        },
        {
          "internalType": "uint256",
          "name": "index",
          "type": "uint256"
        }
      ],
      "stateMutability": "view",
      "type": "function",
      "constant": true
    },
    {
      "inputs": [
        {
          "internalType": "address",
          "name": "",
          "type": "address"
        }
      ],
      "name": "shopObj",
      "outputs": [
        {
          "internalType": "address",
          "name": "owner",
          "type": "address"
        },
        {
          "internalType": "string",
          "name": "name",
          "type": "string"
        },
        {
          "internalType": "uint256",
          "name": "index",
          "type": "uint256"
        }
      ],
      "stateMutability": "view",
      "type": "function",
      "constant": true
    },
    {
      "inputs": [
        {
          "internalType": "uint256",
          "name": "",
          "type": "uint256"
        }
      ],
      "name": "userList",
      "outputs": [
        {
          "internalType": "address",
          "name": "account",
          "type": "address"
        },
        {
          "internalType": "string",
          "name": "bgColor",
          "type": "string"
        },
        {
          "internalType": "string",
          "name": "gridColor",
          "type": "string"
        },
        {
          "internalType": "bool",
          "name": "withGrid",
          "type": "bool"
        },
        {
          "internalType": "bool",
          "name": "isMerchant",
          "type": "bool"
        },
        {
          "internalType": "uint256",
          "name": "index",
          "type": "uint256"
        }
      ],
      "stateMutability": "view",
      "type": "function",
      "constant": true
    },
    {
      "inputs": [
        {
          "internalType": "address",
          "name": "",
          "type": "address"
        }
      ],
      "name": "userObj",
      "outputs": [
        {
          "internalType": "address",
          "name": "account",
          "type": "address"
        },
        {
          "internalType": "string",
          "name": "bgColor",
          "type": "string"
        },
        {
          "internalType": "string",
          "name": "gridColor",
          "type": "string"
        },
        {
          "internalType": "bool",
          "name": "withGrid",
          "type": "bool"
        },
        {
          "internalType": "bool",
          "name": "isMerchant",
          "type": "bool"
        },
        {
          "internalType": "uint256",
          "name": "index",
          "type": "uint256"
        }
      ],
      "stateMutability": "view",
      "type": "function",
      "constant": true
    },
    {
      "inputs": [
        {
          "internalType": "uint256[]",
          "name": "ids",
          "type": "uint256[]"
        }
      ],
      "name": "mint",
      "outputs": [],
      "stateMutability": "nonpayable",
      "type": "function"
    },
    {
      "inputs": [],
      "name": "register",
      "outputs": [],
      "stateMutability": "nonpayable",
      "type": "function"
    },
    {
      "inputs": [
        {
          "internalType": "string",
          "name": "bgColor",
          "type": "string"
        },
        {
          "internalType": "string",
          "name": "gridColor",
          "type": "string"
        },
        {
          "internalType": "bool",
          "name": "withGrid",
          "type": "bool"
        },
        {
          "internalType": "uint256",
          "name": "userIndex",
          "type": "uint256"
        }
      ],
      "name": "setConfig",
      "outputs": [],
      "stateMutability": "nonpayable",
      "type": "function"
    },
    {
      "inputs": [
        {
          "internalType": "string",
          "name": "name",
          "type": "string"
        },
        {
          "internalType": "uint256",
          "name": "userIndex",
          "type": "uint256"
        }
      ],
      "name": "application",
      "outputs": [],
      "stateMutability": "nonpayable",
      "type": "function"
    },
    {
      "inputs": [],
      "name": "getUserLength",
      "outputs": [
        {
          "internalType": "uint256",
          "name": "",
          "type": "uint256"
        }
      ],
      "stateMutability": "view",
      "type": "function",
      "constant": true
    },
    {
      "inputs": [],
      "name": "getShopLength",
      "outputs": [
        {
          "internalType": "uint256",
          "name": "",
          "type": "uint256"
        }
      ],
      "stateMutability": "view",
      "type": "function",
      "constant": true
    },
    {
      "inputs": [],
      "name": "getGoodsLength",
      "outputs": [
        {
          "internalType": "uint256",
          "name": "",
          "type": "uint256"
        }
      ],
      "stateMutability": "view",
      "type": "function",
      "constant": true
    },
    {
      "inputs": [],
      "name": "getUserAssetsLength",
      "outputs": [
        {
          "internalType": "uint256",
          "name": "",
          "type": "uint256"
        }
      ],
      "stateMutability": "view",
      "type": "function",
      "constant": true
    },
    {
      "inputs": [
        {
          "internalType": "address",
          "name": "user",
          "type": "address"
        }
      ],
      "name": "getUserAssets",
      "outputs": [
        {
          "components": [
            {
              "internalType": "string",
              "name": "category",
              "type": "string"
            },
            {
              "internalType": "string",
              "name": "data",
              "type": "string"
            },
            {
              "internalType": "uint256",
              "name": "id",
              "type": "uint256"
            },
            {
              "internalType": "bool",
              "name": "isOutfit",
              "type": "bool"
            },
            {
              "internalType": "uint256",
              "name": "index",
              "type": "uint256"
            }
          ],
          "internalType": "struct PixelsMetavers.AssetsStruct[]",
          "name": "",
          "type": "tuple[]"
        }
      ],
      "stateMutability": "view",
      "type": "function",
      "constant": true
    },
    {
      "inputs": [
        {
          "internalType": "string",
          "name": "name",
          "type": "string"
        },
        {
          "internalType": "string",
          "name": "category",
          "type": "string"
        },
        {
          "internalType": "string",
          "name": "data",
          "type": "string"
        },
        {
          "internalType": "uint256",
          "name": "price",
          "type": "uint256"
        },
        {
          "internalType": "uint256",
          "name": "amount",
          "type": "uint256"
        }
      ],
      "name": "postGoods",
      "outputs": [],
      "stateMutability": "nonpayable",
      "type": "function"
    },
    {
      "inputs": [
        {
          "internalType": "uint256",
          "name": "id",
          "type": "uint256"
        },
        {
          "internalType": "uint256",
          "name": "goodsIndex",
          "type": "uint256"
        }
      ],
      "name": "buyGoods",
      "outputs": [],
      "stateMutability": "payable",
      "type": "function",
      "payable": true
    },
    {
      "inputs": [
        {
          "internalType": "address",
          "name": "pmt721",
          "type": "address"
        }
      ],
      "name": "setPMT721",
      "outputs": [],
      "stateMutability": "nonpayable",
      "type": "function"
    }
  ],
  "bytecode": "0x6080604052600160085534801561001557600080fd5b5061507a806100256000396000f3fe6080604052600436106101145760003560e01c80639f4216e8116100a0578063de01c3cb11610064578063de01c3cb146103da578063e2178d651461041e578063ed7fca011461045d578063f8e93ef914610479578063fb60c2cd146104a257610114565b80639f4216e8146102c2578063a776ca4c14610304578063c0a739211461032f578063c0e562141461036e578063d1db4c87146103af57610114565b8063486f0dd0116100e7578063486f0dd0146101df5780637456fed614610208578063749aa93714610233578063765ff0611461025c578063919ad9f51461029957610114565b8063023b7309146101195780631aa3a008146101425780631f53248f1461015957806328d27f091461019b575b600080fd5b34801561012557600080fd5b50610140600480360381019061013b91906141ed565b6104cd565b005b34801561014e57600080fd5b50610157610ba2565b005b34801561016557600080fd5b50610180600480360381019061017b91906140f5565b611064565b604051610192969594939291906149e1565b60405180910390f35b3480156101a757600080fd5b506101c260048036038101906101bd9190614393565b6111ea565b6040516101d6989796959493929190614a50565b60405180910390f35b3480156101eb57600080fd5b506102066004803603810190610201919061433f565b611407565b005b34801561021457600080fd5b5061021d611b6c565b60405161022a9190614d04565b60405180910390f35b34801561023f57600080fd5b5061025a600480360381019061025591906140f5565b611b79565b005b34801561026857600080fd5b50610283600480360381019061027e91906140f5565b611bbc565b6040516102909190614b21565b60405180910390f35b3480156102a557600080fd5b506102c060048036038101906102bb9190614280565b611dad565b005b3480156102ce57600080fd5b506102e960048036038101906102e49190614393565b61235d565b6040516102fb969594939291906149e1565b60405180910390f35b34801561031057600080fd5b506103196124f3565b6040516103269190614d04565b60405180910390f35b34801561033b57600080fd5b5061035660048036038101906103519190614393565b612500565b60405161036593929190614ae3565b60405180910390f35b34801561037a57600080fd5b5061039560048036038101906103909190614147565b6125e2565b6040516103a6959493929190614b43565b60405180910390f35b3480156103bb57600080fd5b506103c4612752565b6040516103d19190614d04565b60405180910390f35b3480156103e657600080fd5b5061040160048036038101906103fc9190614393565b61275f565b604051610415989796959493929190614a50565b60405180910390f35b34801561042a57600080fd5b50610445600480360381019061044091906140f5565b61296c565b60405161045493929190614ae3565b60405180910390f35b610477600480360381019061047291906143e5565b612a3e565b005b34801561048557600080fd5b506104a0600480360381019061049b9190614183565b6135e4565b005b3480156104ae57600080fd5b506104b7613a34565b6040516104c49190614d04565b60405180910390f35b336000600260008373ffffffffffffffffffffffffffffffffffffffff1673ffffffffffffffffffffffffffffffffffffffff1681526020019081526020016000206040518060c00160405290816000820160009054906101000a900473ffffffffffffffffffffffffffffffffffffffff1673ffffffffffffffffffffffffffffffffffffffff1673ffffffffffffffffffffffffffffffffffffffff16815260200160018201805461058090614ee6565b80601f01602080910402602001604051908101604052809291908181526020018280546105ac90614ee6565b80156105f95780601f106105ce576101008083540402835291602001916105f9565b820191906000526020600020905b8154815290600101906020018083116105dc57829003601f168201915b5050505050815260200160028201805461061290614ee6565b80601f016020809104026020016040519081016040528092919081815260200182805461063e90614ee6565b801561068b5780601f106106605761010080835404028352916020019161068b565b820191906000526020600020905b81548152906001019060200180831161066e57829003601f168201915b505050505081526020016003820160009054906101000a900460ff161515151581526020016003820160019054906101000a900460ff161515151581526020016004820154815250509050600073ffffffffffffffffffffffffffffffffffffffff16816000015173ffffffffffffffffffffffffffffffffffffffff16141561074a576040517f08c379a000000000000000000000000000000000000000000000000000000000815260040161074190614c44565b60405180910390fd5b6000600260003373ffffffffffffffffffffffffffffffffffffffff1673ffffffffffffffffffffffffffffffffffffffff1681526020019081526020016000206040518060c00160405290816000820160009054906101000a900473ffffffffffffffffffffffffffffffffffffffff1673ffffffffffffffffffffffffffffffffffffffff1673ffffffffffffffffffffffffffffffffffffffff1681526020016001820180546107fc90614ee6565b80601f016020809104026020016040519081016040528092919081815260200182805461082890614ee6565b80156108755780601f1061084a57610100808354040283529160200191610875565b820191906000526020600020905b81548152906001019060200180831161085857829003601f168201915b5050505050815260200160028201805461088e90614ee6565b80601f01602080910402602001604051908101604052809291908181526020018280546108ba90614ee6565b80156109075780601f106108dc57610100808354040283529160200191610907565b820191906000526020600020905b8154815290600101906020018083116108ea57829003601f168201915b505050505081526020016003820160009054906101000a900460ff161515151581526020016003820160019054906101000a900460ff1615151515815260200160048201548152505090508681602001819052508581604001819052508481606001901515908115158152505080600260003373ffffffffffffffffffffffffffffffffffffffff1673ffffffffffffffffffffffffffffffffffffffff16815260200190815260200160002060008201518160000160006101000a81548173ffffffffffffffffffffffffffffffffffffffff021916908373ffffffffffffffffffffffffffffffffffffffff1602179055506020820151816001019080519060200190610a17929190613e49565b506040820151816002019080519060200190610a34929190613e49565b5060608201518160030160006101000a81548160ff02191690831515021790555060808201518160030160016101000a81548160ff02191690831515021790555060a082015181600401559050508060038581548110610abd577f4e487b7100000000000000000000000000000000000000000000000000000000600052603260045260246000fd5b906000526020600020906005020160008201518160000160006101000a81548173ffffffffffffffffffffffffffffffffffffffff021916908373ffffffffffffffffffffffffffffffffffffffff1602179055506020820151816001019080519060200190610b2e929190613e49565b506040820151816002019080519060200190610b4b929190613e49565b5060608201518160030160006101000a81548160ff02191690831515021790555060808201518160030160016101000a81548160ff02191690831515021790555060a0820151816004015590505050505050505050565b6000600260003373ffffffffffffffffffffffffffffffffffffffff1673ffffffffffffffffffffffffffffffffffffffff1681526020019081526020016000206040518060c00160405290816000820160009054906101000a900473ffffffffffffffffffffffffffffffffffffffff1673ffffffffffffffffffffffffffffffffffffffff1673ffffffffffffffffffffffffffffffffffffffff168152602001600182018054610c5490614ee6565b80601f0160208091040260200160405190810160405280929190818152602001828054610c8090614ee6565b8015610ccd5780601f10610ca257610100808354040283529160200191610ccd565b820191906000526020600020905b815481529060010190602001808311610cb057829003601f168201915b50505050508152602001600282018054610ce690614ee6565b80601f0160208091040260200160405190810160405280929190818152602001828054610d1290614ee6565b8015610d5f5780601f10610d3457610100808354040283529160200191610d5f565b820191906000526020600020905b815481529060010190602001808311610d4257829003601f168201915b505050505081526020016003820160009054906101000a900460ff161515151581526020016003820160019054906101000a900460ff161515151581526020016004820154815250509050600073ffffffffffffffffffffffffffffffffffffffff16816000015173ffffffffffffffffffffffffffffffffffffffff1614610e1d576040517f08c379a0000000000000000000000000000000000000000000000000000000008152600401610e1490614ba4565b60405180910390fd5b33600260003373ffffffffffffffffffffffffffffffffffffffff1673ffffffffffffffffffffffffffffffffffffffff16815260200190815260200160002060000160006101000a81548173ffffffffffffffffffffffffffffffffffffffff021916908373ffffffffffffffffffffffffffffffffffffffff160217905550600380549050600260003373ffffffffffffffffffffffffffffffffffffffff1673ffffffffffffffffffffffffffffffffffffffff168152602001908152602001600020600401819055506003600260003373ffffffffffffffffffffffffffffffffffffffff1673ffffffffffffffffffffffffffffffffffffffff16815260200190815260200160002090806001815401808255809150506001900390600052602060002090600502016000909190919091506000820160009054906101000a900473ffffffffffffffffffffffffffffffffffffffff168160000160006101000a81548173ffffffffffffffffffffffffffffffffffffffff021916908373ffffffffffffffffffffffffffffffffffffffff1602179055506001820181600101908054610fcf90614ee6565b610fda929190613ecf565b506002820181600201908054610fef90614ee6565b610ffa929190613ecf565b506003820160009054906101000a900460ff168160030160006101000a81548160ff0219169083151502179055506003820160019054906101000a900460ff168160030160016101000a81548160ff02191690831515021790555060048201548160040155505050565b60026020528060005260406000206000915090508060000160009054906101000a900473ffffffffffffffffffffffffffffffffffffffff16908060010180546110ad90614ee6565b80601f01602080910402602001604051908101604052809291908181526020018280546110d990614ee6565b80156111265780601f106110fb57610100808354040283529160200191611126565b820191906000526020600020905b81548152906001019060200180831161110957829003601f168201915b50505050509080600201805461113b90614ee6565b80601f016020809104026020016040519081016040528092919081815260200182805461116790614ee6565b80156111b45780601f10611189576101008083540402835291602001916111b4565b820191906000526020600020905b81548152906001019060200180831161119757829003601f168201915b5050505050908060030160009054906101000a900460ff16908060030160019054906101000a900460ff16908060040154905086565b600781815481106111fa57600080fd5b90600052602060002090600802016000915090508060000160009054906101000a900473ffffffffffffffffffffffffffffffffffffffff169080600101805461124390614ee6565b80601f016020809104026020016040519081016040528092919081815260200182805461126f90614ee6565b80156112bc5780601f10611291576101008083540402835291602001916112bc565b820191906000526020600020905b81548152906001019060200180831161129f57829003601f168201915b5050505050908060020180546112d190614ee6565b80601f01602080910402602001604051908101604052809291908181526020018280546112fd90614ee6565b801561134a5780601f1061131f5761010080835404028352916020019161134a565b820191906000526020600020905b81548152906001019060200180831161132d57829003601f168201915b50505050509080600301805461135f90614ee6565b80601f016020809104026020016040519081016040528092919081815260200182805461138b90614ee6565b80156113d85780601f106113ad576101008083540402835291602001916113d8565b820191906000526020600020905b8154815290600101906020018083116113bb57829003601f168201915b5050505050908060040154908060050154908060060160009054906101000a900460ff16908060070154905088565b336000600260008373ffffffffffffffffffffffffffffffffffffffff1673ffffffffffffffffffffffffffffffffffffffff1681526020019081526020016000206040518060c00160405290816000820160009054906101000a900473ffffffffffffffffffffffffffffffffffffffff1673ffffffffffffffffffffffffffffffffffffffff1673ffffffffffffffffffffffffffffffffffffffff1681526020016001820180546114ba90614ee6565b80601f01602080910402602001604051908101604052809291908181526020018280546114e690614ee6565b80156115335780601f1061150857610100808354040283529160200191611533565b820191906000526020600020905b81548152906001019060200180831161151657829003601f168201915b5050505050815260200160028201805461154c90614ee6565b80601f016020809104026020016040519081016040528092919081815260200182805461157890614ee6565b80156115c55780601f1061159a576101008083540402835291602001916115c5565b820191906000526020600020905b8154815290600101906020018083116115a857829003601f168201915b505050505081526020016003820160009054906101000a900460ff161515151581526020016003820160019054906101000a900460ff161515151581526020016004820154815250509050600073ffffffffffffffffffffffffffffffffffffffff16816000015173ffffffffffffffffffffffffffffffffffffffff161415611684576040517f08c379a000000000000000000000000000000000000000000000000000000000815260040161167b90614c44565b60405180910390fd5b6000600260003373ffffffffffffffffffffffffffffffffffffffff1673ffffffffffffffffffffffffffffffffffffffff1681526020019081526020016000206040518060c00160405290816000820160009054906101000a900473ffffffffffffffffffffffffffffffffffffffff1673ffffffffffffffffffffffffffffffffffffffff1673ffffffffffffffffffffffffffffffffffffffff16815260200160018201805461173690614ee6565b80601f016020809104026020016040519081016040528092919081815260200182805461176290614ee6565b80156117af5780601f10611784576101008083540402835291602001916117af565b820191906000526020600020905b81548152906001019060200180831161179257829003601f168201915b505050505081526020016002820180546117c890614ee6565b80601f01602080910402602001604051908101604052809291908181526020018280546117f490614ee6565b80156118415780601f1061181657610100808354040283529160200191611841565b820191906000526020600020905b81548152906001019060200180831161182457829003601f168201915b505050505081526020016003820160009054906101000a900460ff161515151581526020016003820160019054906101000a900460ff1615151515815260200160048201548152505090508060800151156118d1576040517f08c379a00000000000000000000000000000000000000000000000000000000081526004016118c890614be4565b60405180910390fd5b84600560003373ffffffffffffffffffffffffffffffffffffffff1673ffffffffffffffffffffffffffffffffffffffff1681526020019081526020016000206001019080519060200190611927929190613e49565b5033600560003373ffffffffffffffffffffffffffffffffffffffff1673ffffffffffffffffffffffffffffffffffffffff16815260200190815260200160002060000160006101000a81548173ffffffffffffffffffffffffffffffffffffffff021916908373ffffffffffffffffffffffffffffffffffffffff1602179055506001600260003373ffffffffffffffffffffffffffffffffffffffff1673ffffffffffffffffffffffffffffffffffffffff16815260200190815260200160002060030160016101000a81548160ff021916908315150217905550600160038581548110611a40577f4e487b7100000000000000000000000000000000000000000000000000000000600052603260045260246000fd5b906000526020600020906005020160030160016101000a81548160ff0219169083151502179055506004600560003373ffffffffffffffffffffffffffffffffffffffff1673ffffffffffffffffffffffffffffffffffffffff16815260200190815260200160002090806001815401808255809150506001900390600052602060002090600302016000909190919091506000820160009054906101000a900473ffffffffffffffffffffffffffffffffffffffff168160000160006101000a81548173ffffffffffffffffffffffffffffffffffffffff021916908373ffffffffffffffffffffffffffffffffffffffff1602179055506001820181600101908054611b4d90614ee6565b611b58929190613ecf565b506002820154816002015550505050505050565b6000600380549050905090565b806000806101000a81548173ffffffffffffffffffffffffffffffffffffffff021916908373ffffffffffffffffffffffffffffffffffffffff16021790555050565b6060600160008373ffffffffffffffffffffffffffffffffffffffff1673ffffffffffffffffffffffffffffffffffffffff168152602001908152602001600020805480602002602001604051908101604052809291908181526020016000905b82821015611da257838290600052602060002090600502016040518060a0016040529081600082018054611c5090614ee6565b80601f0160208091040260200160405190810160405280929190818152602001828054611c7c90614ee6565b8015611cc95780601f10611c9e57610100808354040283529160200191611cc9565b820191906000526020600020905b815481529060010190602001808311611cac57829003601f168201915b50505050508152602001600182018054611ce290614ee6565b80601f0160208091040260200160405190810160405280929190818152602001828054611d0e90614ee6565b8015611d5b5780601f10611d3057610100808354040283529160200191611d5b565b820191906000526020600020905b815481529060010190602001808311611d3e57829003601f168201915b50505050508152602001600282015481526020016003820160009054906101000a900460ff1615151515815260200160048201548152505081526020019060010190611c1d565b505050509050919050565b336000600560008373ffffffffffffffffffffffffffffffffffffffff1673ffffffffffffffffffffffffffffffffffffffff1681526020019081526020016000206040518060600160405290816000820160009054906101000a900473ffffffffffffffffffffffffffffffffffffffff1673ffffffffffffffffffffffffffffffffffffffff1673ffffffffffffffffffffffffffffffffffffffff168152602001600182018054611e6090614ee6565b80601f0160208091040260200160405190810160405280929190818152602001828054611e8c90614ee6565b8015611ed95780601f10611eae57610100808354040283529160200191611ed9565b820191906000526020600020905b815481529060010190602001808311611ebc57829003601f168201915b505050505081526020016002820154815250509050600073ffffffffffffffffffffffffffffffffffffffff16816000015173ffffffffffffffffffffffffffffffffffffffff161415611f62576040517f08c379a0000000000000000000000000000000000000000000000000000000008152600401611f5990614c64565b60405180910390fd5b600160085414611fa7576040517f08c379a0000000000000000000000000000000000000000000000000000000008152600401611f9e90614bc4565b60405180910390fd5b600060088190555060005b8381101561234b5760008054906101000a900473ffffffffffffffffffffffffffffffffffffffff1673ffffffffffffffffffffffffffffffffffffffff16631249c58b6040518163ffffffff1660e01b8152600401600060405180830381600087803b15801561202257600080fd5b505af1158015612036573d6000803e3d6000fd5b5050505060008060009054906101000a900473ffffffffffffffffffffffffffffffffffffffff1673ffffffffffffffffffffffffffffffffffffffff1663ef1e7df36040518163ffffffff1660e01b815260040160206040518083038186803b1580156120a357600080fd5b505afa1580156120b7573d6000803e3d6000fd5b505050506040513d601f19601f820116820180604052508101906120db91906143bc565b905060006040518061010001604052803373ffffffffffffffffffffffffffffffffffffffff1681526020018b81526020018a81526020018981526020018881526020018381526020016001151581526020016007805490508152509050806006600084815260200190815260200160002060008201518160000160006101000a81548173ffffffffffffffffffffffffffffffffffffffff021916908373ffffffffffffffffffffffffffffffffffffffff16021790555060208201518160010190805190602001906121b0929190613e49565b5060408201518160020190805190602001906121cd929190613e49565b5060608201518160030190805190602001906121ea929190613e49565b506080820151816004015560a0820151816005015560c08201518160060160006101000a81548160ff02191690831515021790555060e08201518160070155905050600781908060018154018082558091505060019003906000526020600020906008020160009091909190915060008201518160000160006101000a81548173ffffffffffffffffffffffffffffffffffffffff021916908373ffffffffffffffffffffffffffffffffffffffff16021790555060208201518160010190805190602001906122bb929190613e49565b5060408201518160020190805190602001906122d8929190613e49565b5060608201518160030190805190602001906122f5929190613e49565b506080820151816004015560a0820151816005015560c08201518160060160006101000a81548160ff02191690831515021790555060e0820151816007015550505050808061234390614f18565b915050611fb2565b50600160088190555050505050505050565b6003818154811061236d57600080fd5b90600052602060002090600502016000915090508060000160009054906101000a900473ffffffffffffffffffffffffffffffffffffffff16908060010180546123b690614ee6565b80601f01602080910402602001604051908101604052809291908181526020018280546123e290614ee6565b801561242f5780601f106124045761010080835404028352916020019161242f565b820191906000526020600020905b81548152906001019060200180831161241257829003601f168201915b50505050509080600201805461244490614ee6565b80601f016020809104026020016040519081016040528092919081815260200182805461247090614ee6565b80156124bd5780601f10612492576101008083540402835291602001916124bd565b820191906000526020600020905b8154815290600101906020018083116124a057829003601f168201915b5050505050908060030160009054906101000a900460ff16908060030160019054906101000a900460ff16908060040154905086565b6000600480549050905090565b6004818154811061251057600080fd5b90600052602060002090600302016000915090508060000160009054906101000a900473ffffffffffffffffffffffffffffffffffffffff169080600101805461255990614ee6565b80601f016020809104026020016040519081016040528092919081815260200182805461258590614ee6565b80156125d25780601f106125a7576101008083540402835291602001916125d2565b820191906000526020600020905b8154815290600101906020018083116125b557829003601f168201915b5050505050908060020154905083565b600160205281600052604060002081815481106125fe57600080fd5b90600052602060002090600502016000915091505080600001805461262290614ee6565b80601f016020809104026020016040519081016040528092919081815260200182805461264e90614ee6565b801561269b5780601f106126705761010080835404028352916020019161269b565b820191906000526020600020905b81548152906001019060200180831161267e57829003601f168201915b5050505050908060010180546126b090614ee6565b80601f01602080910402602001604051908101604052809291908181526020018280546126dc90614ee6565b80156127295780601f106126fe57610100808354040283529160200191612729565b820191906000526020600020905b81548152906001019060200180831161270c57829003601f168201915b5050505050908060020154908060030160009054906101000a900460ff16908060040154905085565b6000600780549050905090565b60066020528060005260406000206000915090508060000160009054906101000a900473ffffffffffffffffffffffffffffffffffffffff16908060010180546127a890614ee6565b80601f01602080910402602001604051908101604052809291908181526020018280546127d490614ee6565b80156128215780601f106127f657610100808354040283529160200191612821565b820191906000526020600020905b81548152906001019060200180831161280457829003601f168201915b50505050509080600201805461283690614ee6565b80601f016020809104026020016040519081016040528092919081815260200182805461286290614ee6565b80156128af5780601f10612884576101008083540402835291602001916128af565b820191906000526020600020905b81548152906001019060200180831161289257829003601f168201915b5050505050908060030180546128c490614ee6565b80601f01602080910402602001604051908101604052809291908181526020018280546128f090614ee6565b801561293d5780601f106129125761010080835404028352916020019161293d565b820191906000526020600020905b81548152906001019060200180831161292057829003601f168201915b5050505050908060040154908060050154908060060160009054906101000a900460ff16908060070154905088565b60056020528060005260406000206000915090508060000160009054906101000a900473ffffffffffffffffffffffffffffffffffffffff16908060010180546129b590614ee6565b80601f01602080910402602001604051908101604052809291908181526020018280546129e190614ee6565b8015612a2e5780601f10612a0357610100808354040283529160200191612a2e565b820191906000526020600020905b815481529060010190602001808311612a1157829003601f168201915b5050505050908060020154905083565b8160008054906101000a900473ffffffffffffffffffffffffffffffffffffffff1673ffffffffffffffffffffffffffffffffffffffff1663342de179826040518263ffffffff1660e01b8152600401612a989190614d04565b60206040518083038186803b158015612ab057600080fd5b505afa158015612ac4573d6000803e3d6000fd5b505050506040513d601f19601f82011682018060405250810190612ae891906141c4565b612b27576040517f08c379a0000000000000000000000000000000000000000000000000000000008152600401612b1e90614c84565b60405180910390fd5b336000600260008373ffffffffffffffffffffffffffffffffffffffff1673ffffffffffffffffffffffffffffffffffffffff1681526020019081526020016000206040518060c00160405290816000820160009054906101000a900473ffffffffffffffffffffffffffffffffffffffff1673ffffffffffffffffffffffffffffffffffffffff1673ffffffffffffffffffffffffffffffffffffffff168152602001600182018054612bda90614ee6565b80601f0160208091040260200160405190810160405280929190818152602001828054612c0690614ee6565b8015612c535780601f10612c2857610100808354040283529160200191612c53565b820191906000526020600020905b815481529060010190602001808311612c3657829003601f168201915b50505050508152602001600282018054612c6c90614ee6565b80601f0160208091040260200160405190810160405280929190818152602001828054612c9890614ee6565b8015612ce55780601f10612cba57610100808354040283529160200191612ce5565b820191906000526020600020905b815481529060010190602001808311612cc857829003601f168201915b505050505081526020016003820160009054906101000a900460ff161515151581526020016003820160019054906101000a900460ff161515151581526020016004820154815250509050600073ffffffffffffffffffffffffffffffffffffffff16816000015173ffffffffffffffffffffffffffffffffffffffff161415612da4576040517f08c379a0000000000000000000000000000000000000000000000000000000008152600401612d9b90614c44565b60405180910390fd5b600160085414612de9576040517f08c379a0000000000000000000000000000000000000000000000000000000008152600401612de090614bc4565b60405180910390fd5b6000600881905550600060066000878152602001908152602001600020604051806101000160405290816000820160009054906101000a900473ffffffffffffffffffffffffffffffffffffffff1673ffffffffffffffffffffffffffffffffffffffff1673ffffffffffffffffffffffffffffffffffffffff168152602001600182018054612e7890614ee6565b80601f0160208091040260200160405190810160405280929190818152602001828054612ea490614ee6565b8015612ef15780601f10612ec657610100808354040283529160200191612ef1565b820191906000526020600020905b815481529060010190602001808311612ed457829003601f168201915b50505050508152602001600282018054612f0a90614ee6565b80601f0160208091040260200160405190810160405280929190818152602001828054612f3690614ee6565b8015612f835780601f10612f5857610100808354040283529160200191612f83565b820191906000526020600020905b815481529060010190602001808311612f6657829003601f168201915b50505050508152602001600382018054612f9c90614ee6565b80601f0160208091040260200160405190810160405280929190818152602001828054612fc890614ee6565b80156130155780601f10612fea57610100808354040283529160200191613015565b820191906000526020600020905b815481529060010190602001808311612ff857829003601f168201915b5050505050815260200160048201548152602001600582015481526020016006820160009054906101000a900460ff161515151581526020016007820154815250509050806000015173ffffffffffffffffffffffffffffffffffffffff163373ffffffffffffffffffffffffffffffffffffffff1614156130cc576040517f08c379a00000000000000000000000000000000000000000000000000000000081526004016130c390614cc4565b60405180910390fd5b8060800151341015613113576040517f08c379a000000000000000000000000000000000000000000000000000000000815260040161310a90614c04565b60405180910390fd5b60008054906101000a900473ffffffffffffffffffffffffffffffffffffffff1673ffffffffffffffffffffffffffffffffffffffff166342842e0e3033896040518463ffffffff1660e01b8152600401613170939291906149aa565b600060405180830381600087803b15801561318a57600080fd5b505af115801561319e573d6000803e3d6000fd5b50505050600160003373ffffffffffffffffffffffffffffffffffffffff1673ffffffffffffffffffffffffffffffffffffffff1681526020019081526020016000206040518060a00160405280600660008a8152602001908152602001600020600201805461320d90614ee6565b80601f016020809104026020016040519081016040528092919081815260200182805461323990614ee6565b80156132865780601f1061325b57610100808354040283529160200191613286565b820191906000526020600020905b81548152906001019060200180831161326957829003601f168201915b50505050508152602001600660008a815260200190815260200160002060030180546132b190614ee6565b80601f01602080910402602001604051908101604052809291908181526020018280546132dd90614ee6565b801561332a5780601f106132ff5761010080835404028352916020019161332a565b820191906000526020600020905b81548152906001019060200180831161330d57829003601f168201915b50505050508152602001888152602001600015158152602001600160003373ffffffffffffffffffffffffffffffffffffffff1673ffffffffffffffffffffffffffffffffffffffff16815260200190815260200160002080549050815250908060018154018082558091505060019003906000526020600020906005020160009091909190915060008201518160000190805190602001906133ce929190613e49565b5060208201518160010190805190602001906133eb929190613e49565b506040820151816002015560608201518160030160006101000a81548160ff0219169083151502179055506080820151816004015550506134626006600088815260200190815260200160002060000160009054906101000a900473ffffffffffffffffffffffffffffffffffffffff1634613a7e565b336006600088815260200190815260200160002060000160006101000a81548173ffffffffffffffffffffffffffffffffffffffff021916908373ffffffffffffffffffffffffffffffffffffffff16021790555060006006600088815260200190815260200160002060060160006101000a81548160ff0219169083151502179055503360078681548110613521577f4e487b7100000000000000000000000000000000000000000000000000000000600052603260045260246000fd5b906000526020600020906008020160000160006101000a81548173ffffffffffffffffffffffffffffffffffffffff021916908373ffffffffffffffffffffffffffffffffffffffff1602179055506000600786815481106135ac577f4e487b7100000000000000000000000000000000000000000000000000000000600052603260045260246000fd5b906000526020600020906008020160060160006101000a81548160ff0219169083151502179055505060016008819055505050505050565b336000600260008373ffffffffffffffffffffffffffffffffffffffff1673ffffffffffffffffffffffffffffffffffffffff1681526020019081526020016000206040518060c00160405290816000820160009054906101000a900473ffffffffffffffffffffffffffffffffffffffff1673ffffffffffffffffffffffffffffffffffffffff1673ffffffffffffffffffffffffffffffffffffffff16815260200160018201805461369790614ee6565b80601f01602080910402602001604051908101604052809291908181526020018280546136c390614ee6565b80156137105780601f106136e557610100808354040283529160200191613710565b820191906000526020600020905b8154815290600101906020018083116136f357829003601f168201915b5050505050815260200160028201805461372990614ee6565b80601f016020809104026020016040519081016040528092919081815260200182805461375590614ee6565b80156137a25780601f10613777576101008083540402835291602001916137a2565b820191906000526020600020905b81548152906001019060200180831161378557829003601f168201915b505050505081526020016003820160009054906101000a900460ff161515151581526020016003820160019054906101000a900460ff161515151581526020016004820154815250509050600073ffffffffffffffffffffffffffffffffffffffff16816000015173ffffffffffffffffffffffffffffffffffffffff161415613861576040517f08c379a000000000000000000000000000000000000000000000000000000000815260040161385890614c44565b60405180910390fd5b60005b600184516138729190614e28565b811015613a2e5760008054906101000a900473ffffffffffffffffffffffffffffffffffffffff1673ffffffffffffffffffffffffffffffffffffffff16636352211e8583815181106138ee577f4e487b7100000000000000000000000000000000000000000000000000000000600052603260045260246000fd5b60200260200101516040518263ffffffff1660e01b81526004016139129190614d04565b60206040518083038186803b15801561392a57600080fd5b505afa15801561393e573d6000803e3d6000fd5b505050506040513d601f19601f82011682018060405250810190613962919061411e565b73ffffffffffffffffffffffffffffffffffffffff163373ffffffffffffffffffffffffffffffffffffffff16146139cf576040517f08c379a00000000000000000000000000000000000000000000000000000000081526004016139c690614ca4565b60405180910390fd5b613a1b848281518110613a0b577f4e487b7100000000000000000000000000000000000000000000000000000000600052603260045260246000fd5b6020026020010151826001613ba4565b8080613a2690614f18565b915050613864565b50505050565b6000600160003373ffffffffffffffffffffffffffffffffffffffff1673ffffffffffffffffffffffffffffffffffffffff16815260200190815260200160002080549050905090565b60008273ffffffffffffffffffffffffffffffffffffffff1682600067ffffffffffffffff811115613ad9577f4e487b7100000000000000000000000000000000000000000000000000000000600052604160045260246000fd5b6040519080825280601f01601f191660200182016040528015613b0b5781602001600182028036833780820191505090505b50604051613b199190614993565b60006040518083038185875af1925050503d8060008114613b56576040519150601f19603f3d011682016040523d82523d6000602084013e613b5b565b606091505b5050905080613b9f576040517f08c379a0000000000000000000000000000000000000000000000000000000008152600401613b9690614c24565b60405180910390fd5b505050565b8260008054906101000a900473ffffffffffffffffffffffffffffffffffffffff1673ffffffffffffffffffffffffffffffffffffffff1663342de179826040518263ffffffff1660e01b8152600401613bfe9190614d04565b60206040518083038186803b158015613c1657600080fd5b505afa158015613c2a573d6000803e3d6000fd5b505050506040513d601f19601f82011682018060405250810190613c4e91906141c4565b613c8d576040517f08c379a0000000000000000000000000000000000000000000000000000000008152600401613c8490614c84565b60405180910390fd5b60008054906101000a900473ffffffffffffffffffffffffffffffffffffffff1673ffffffffffffffffffffffffffffffffffffffff16636352211e856040518263ffffffff1660e01b8152600401613ce69190614d04565b60206040518083038186803b158015613cfe57600080fd5b505afa158015613d12573d6000803e3d6000fd5b505050506040513d601f19601f82011682018060405250810190613d36919061411e565b73ffffffffffffffffffffffffffffffffffffffff163373ffffffffffffffffffffffffffffffffffffffff1614613da3576040517f08c379a0000000000000000000000000000000000000000000000000000000008152600401613d9a90614ce4565b60405180910390fd5b81600160003373ffffffffffffffffffffffffffffffffffffffff1673ffffffffffffffffffffffffffffffffffffffff1681526020019081526020016000208481548110613e1b577f4e487b7100000000000000000000000000000000000000000000000000000000600052603260045260246000fd5b906000526020600020906005020160030160006101000a81548160ff02191690831515021790555050505050565b828054613e5590614ee6565b90600052602060002090601f016020900481019282613e775760008555613ebe565b82601f10613e9057805160ff1916838001178555613ebe565b82800160010185558215613ebe579182015b82811115613ebd578251825591602001919060010190613ea2565b5b509050613ecb9190613f5c565b5090565b828054613edb90614ee6565b90600052602060002090601f016020900481019282613efd5760008555613f4b565b82601f10613f0e5780548555613f4b565b82800160010185558215613f4b57600052602060002091601f016020900482015b82811115613f4a578254825591600101919060010190613f2f565b5b509050613f589190613f5c565b5090565b5b80821115613f75576000816000905550600101613f5d565b5090565b6000613f8c613f8784614d50565b614d1f565b90508083825260208201905082856020860282011115613fab57600080fd5b60005b85811015613fdb5781613fc188826140cb565b845260208401935060208301925050600181019050613fae565b5050509392505050565b6000613ff8613ff384614d7c565b614d1f565b90508281526020810184848401111561401057600080fd5b61401b848285614ea4565b509392505050565b60008135905061403281614fff565b92915050565b60008151905061404781614fff565b92915050565b600082601f83011261405e57600080fd5b813561406e848260208601613f79565b91505092915050565b60008135905061408681615016565b92915050565b60008151905061409b81615016565b92915050565b600082601f8301126140b257600080fd5b81356140c2848260208601613fe5565b91505092915050565b6000813590506140da8161502d565b92915050565b6000815190506140ef8161502d565b92915050565b60006020828403121561410757600080fd5b600061411584828501614023565b91505092915050565b60006020828403121561413057600080fd5b600061413e84828501614038565b91505092915050565b6000806040838503121561415a57600080fd5b600061416885828601614023565b9250506020614179858286016140cb565b9150509250929050565b60006020828403121561419557600080fd5b600082013567ffffffffffffffff8111156141af57600080fd5b6141bb8482850161404d565b91505092915050565b6000602082840312156141d657600080fd5b60006141e48482850161408c565b91505092915050565b6000806000806080858703121561420357600080fd5b600085013567ffffffffffffffff81111561421d57600080fd5b614229878288016140a1565b945050602085013567ffffffffffffffff81111561424657600080fd5b614252878288016140a1565b935050604061426387828801614077565b9250506060614274878288016140cb565b91505092959194509250565b600080600080600060a0868803121561429857600080fd5b600086013567ffffffffffffffff8111156142b257600080fd5b6142be888289016140a1565b955050602086013567ffffffffffffffff8111156142db57600080fd5b6142e7888289016140a1565b945050604086013567ffffffffffffffff81111561430457600080fd5b614310888289016140a1565b9350506060614321888289016140cb565b9250506080614332888289016140cb565b9150509295509295909350565b6000806040838503121561435257600080fd5b600083013567ffffffffffffffff81111561436c57600080fd5b614378858286016140a1565b9250506020614389858286016140cb565b9150509250929050565b6000602082840312156143a557600080fd5b60006143b3848285016140cb565b91505092915050565b6000602082840312156143ce57600080fd5b60006143dc848285016140e0565b91505092915050565b600080604083850312156143f857600080fd5b6000614406858286016140cb565b9250506020614417858286016140cb565b9150509250929050565b600061442d83836148f8565b905092915050565b61443e81614e5c565b82525050565b600061444f82614dbc565b6144598185614dea565b93508360208202850161446b85614dac565b8060005b858110156144a757848403895281516144888582614421565b945061449383614ddd565b925060208a0199505060018101905061446f565b50829750879550505050505092915050565b6144c281614e6e565b82525050565b6144d181614e6e565b82525050565b60006144e282614dc7565b6144ec8185614dfb565b93506144fc818560208601614eb3565b80840191505092915050565b600061451382614dd2565b61451d8185614e06565b935061452d818560208601614eb3565b61453681614fee565b840191505092915050565b600061454c82614dd2565b6145568185614e17565b9350614566818560208601614eb3565b61456f81614fee565b840191505092915050565b6000614587602083614e17565b91507f596f752061726520616c7265616479206120706c6174666f726d2075736572216000830152602082019050919050565b60006145c7601483614e17565b91507f5468652046756e6374696f6e3a204c4f434b45440000000000000000000000006000830152602082019050919050565b6000614607602483614e17565b91507f596f752061726520616c7265616479206120706c6174666f726d206d6572636860008301527f616e7421000000000000000000000000000000000000000000000000000000006020830152604082019050919050565b600061466d603983614e17565b91507f54686520616d6f756e742070616964206973206c6f776572207468616e20746860008301527f65207072696365206f662074686520636f6d6d6f6469747921000000000000006020830152604082019050919050565b60006146d3603483614e17565b91507f5472616e7366657248656c7065723a3a736166655472616e736665724554483a60008301527f20455448207472616e73666572206661696c65640000000000000000000000006020830152604082019050919050565b6000614739601483614e17565b91507f4f6e6c7920557365722043616e20446f204974210000000000000000000000006000830152602082019050919050565b6000614779601883614e17565b91507f4f6e6c79204d65726368616e742043616e20446f2049742100000000000000006000830152602082019050919050565b60006147b9601b83614e17565b91507f5468652070726f6475637420646f6573206e6f742065786973742100000000006000830152602082019050919050565b60006147f9601e83614e17565b91507f5468652070726f64756374206973206e6f7420796f75722061737365742100006000830152602082019050919050565b6000614839602983614e17565b91507f43616e6e6f742062652070726f647563656420616e6420736f6c64206f6e207460008301527f68656972206f776e2100000000000000000000000000000000000000000000006020830152604082019050919050565b600061489f602383614e17565b91507f5468652063757272656e74206974656d206973206e6f7420796f75722061737360008301527f65742100000000000000000000000000000000000000000000000000000000006020830152604082019050919050565b600060a08301600083015184820360008601526149158282614508565b9150506020830151848203602086015261492f8282614508565b91505060408301516149446040860182614975565b50606083015161495760608601826144b9565b50608083015161496a6080860182614975565b508091505092915050565b61497e81614e9a565b82525050565b61498d81614e9a565b82525050565b600061499f82846144d7565b915081905092915050565b60006060820190506149bf6000830186614435565b6149cc6020830185614435565b6149d96040830184614984565b949350505050565b600060c0820190506149f66000830189614435565b8181036020830152614a088188614541565b90508181036040830152614a1c8187614541565b9050614a2b60608301866144c8565b614a3860808301856144c8565b614a4560a0830184614984565b979650505050505050565b600061010082019050614a66600083018b614435565b8181036020830152614a78818a614541565b90508181036040830152614a8c8189614541565b90508181036060830152614aa08188614541565b9050614aaf6080830187614984565b614abc60a0830186614984565b614ac960c08301856144c8565b614ad660e0830184614984565b9998505050505050505050565b6000606082019050614af86000830186614435565b8181036020830152614b0a8185614541565b9050614b196040830184614984565b949350505050565b60006020820190508181036000830152614b3b8184614444565b905092915050565b600060a0820190508181036000830152614b5d8188614541565b90508181036020830152614b718187614541565b9050614b806040830186614984565b614b8d60608301856144c8565b614b9a6080830184614984565b9695505050505050565b60006020820190508181036000830152614bbd8161457a565b9050919050565b60006020820190508181036000830152614bdd816145ba565b9050919050565b60006020820190508181036000830152614bfd816145fa565b9050919050565b60006020820190508181036000830152614c1d81614660565b9050919050565b60006020820190508181036000830152614c3d816146c6565b9050919050565b60006020820190508181036000830152614c5d8161472c565b9050919050565b60006020820190508181036000830152614c7d8161476c565b9050919050565b60006020820190508181036000830152614c9d816147ac565b9050919050565b60006020820190508181036000830152614cbd816147ec565b9050919050565b60006020820190508181036000830152614cdd8161482c565b9050919050565b60006020820190508181036000830152614cfd81614892565b9050919050565b6000602082019050614d196000830184614984565b92915050565b6000604051905081810181811067ffffffffffffffff82111715614d4657614d45614fbf565b5b8060405250919050565b600067ffffffffffffffff821115614d6b57614d6a614fbf565b5b602082029050602081019050919050565b600067ffffffffffffffff821115614d9757614d96614fbf565b5b601f19601f8301169050602081019050919050565b6000819050602082019050919050565b600081519050919050565b600081519050919050565b600081519050919050565b6000602082019050919050565b600082825260208201905092915050565b600081905092915050565b600082825260208201905092915050565b600082825260208201905092915050565b6000614e3382614e9a565b9150614e3e83614e9a565b925082821015614e5157614e50614f61565b5b828203905092915050565b6000614e6782614e7a565b9050919050565b60008115159050919050565b600073ffffffffffffffffffffffffffffffffffffffff82169050919050565b6000819050919050565b82818337600083830152505050565b60005b83811015614ed1578082015181840152602081019050614eb6565b83811115614ee0576000848401525b50505050565b60006002820490506001821680614efe57607f821691505b60208210811415614f1257614f11614f90565b5b50919050565b6000614f2382614e9a565b91507fffffffffffffffffffffffffffffffffffffffffffffffffffffffffffffffff821415614f5657614f55614f61565b5b600182019050919050565b7f4e487b7100000000000000000000000000000000000000000000000000000000600052601160045260246000fd5b7f4e487b7100000000000000000000000000000000000000000000000000000000600052602260045260246000fd5b7f4e487b7100000000000000000000000000000000000000000000000000000000600052604160045260246000fd5b6000601f19601f8301169050919050565b61500881614e5c565b811461501357600080fd5b50565b61501f81614e6e565b811461502a57600080fd5b50565b61503681614e9a565b811461504157600080fd5b5056fea2646970667358221220bf491ee2b8952f2077d5ba3ac8e28ea9dac0fab0278511dc1a2db19f499669a664736f6c63430008000033",
  "immutableReferences": {},
  "source": "// SPDX-License-Identifier: GPL-3.0\npragma solidity ^0.8.0;\n\nimport \"./IPMT721.sol\";\n\ncontract PixelsMetavers {\n    IPMT721 PMT721;\n\n    struct AssetsStruct {\n        string category;\n        string data;\n        uint256 id;\n        bool isOutfit; //, , , , , \n        uint256 index;\n    }\n    mapping(address => AssetsStruct[]) public assetsObj;\n\n    struct UserStruct {\n        address account;\n        string bgColor;\n        string gridColor;\n        bool withGrid;\n        bool isMerchant;\n        uint256 index;\n    }\n    mapping(address => UserStruct) public userObj;\n    UserStruct[] public userList;\n\n    struct ShopStruct {\n        address owner;\n        string name;\n        uint256 index;\n    }\n    ShopStruct[] public shopList;\n    mapping(address => ShopStruct) public shopObj;\n\n    struct GoodsStruct {\n        address owner;\n        string name;\n        string category;\n        string data;\n        uint256 price;\n        uint256 id;\n        bool isSale;\n        uint256 index;\n    }\n    mapping(uint256 => GoodsStruct) public goodsObj;\n    GoodsStruct[] public goodsList;\n\n    event HandleList(string types); // outfit application post buy\n\n    modifier MustMerchant(address from) {\n        ShopStruct memory shop = shopObj[from];\n        require(shop.owner != address(0), \"Only Merchant Can Do It!\");\n        _;\n    }\n\n    modifier MustUser(address from) {\n        UserStruct memory user = userObj[from];\n        require(user.account != address(0), \"Only User Can Do It!\");\n        _;\n    }\n\n    modifier MustGoodsIsExist(uint256 id) {\n        require(\n            IPMT721(PMT721).exits(id),\n            \"The product does not exist!\"\n        );\n        _;\n    }\n\n    uint256 private unlocked = 1;\n    modifier Lock() {\n        require(unlocked == 1, \"The Function: LOCKED\");\n        unlocked = 0;\n        _;\n        unlocked = 1;\n    }\n\n    constructor() {}\n\n    function mint(uint256[] memory ids) public MustUser(msg.sender) {\n        for (uint256 i; i < ids.length - 1; i++) {\n            require(\n                msg.sender == IPMT721(PMT721).ownerOf(ids[i]),\n                \"The product is not your asset!\"\n            );\n            _outfit(ids[i], i, true);\n        }\n    }\n\n    function register() public {\n        UserStruct memory user = userObj[msg.sender];\n        require(user.account == address(0), \"You are already a platform user!\");\n        userObj[msg.sender].account = msg.sender;\n        userObj[msg.sender].index = userList.length;\n        userList.push(userObj[msg.sender]);\n    }\n\n    function setConfig(\n        string memory bgColor,\n        string memory gridColor,\n        bool withGrid,\n        uint userIndex\n    ) public MustUser(msg.sender) {\n        UserStruct memory user = userObj[msg.sender];\n        user.bgColor = bgColor;\n        user.gridColor = gridColor;\n        user.withGrid = withGrid;\n        userObj[msg.sender] = user;\n        userList[userIndex] = user;\n    }\n\n    function application(string memory name, uint userIndex) public MustUser(msg.sender) {\n        UserStruct memory user = userObj[msg.sender];\n        require(!user.isMerchant, \"You are already a platform merchant!\");\n        shopObj[msg.sender].name = name;\n        shopObj[msg.sender].owner = msg.sender;\n        userObj[msg.sender].isMerchant = true;\n        userList[userIndex].isMerchant = true;\n        shopList.push(shopObj[msg.sender]);\n    }\n\n    function getUserLength() public view returns (uint256) {\n        return userList.length;\n    }\n\n    function getShopLength() public view returns (uint256) {\n        return shopList.length;\n    }\n\n    function getGoodsLength() public view returns (uint256) {\n        return goodsList.length;\n    }\n\n    function getUserAssetsLength() public view returns (uint256) {\n        return assetsObj[msg.sender].length;\n    }\n\n    function getUserAssets(address user)\n        public\n        view\n        returns (AssetsStruct[] memory)\n    {\n        return assetsObj[user];\n    }\n\n    function postGoods(\n        string memory name,\n        string memory category,\n        string memory data,\n        uint256 price,\n        uint256 amount\n    ) public MustMerchant(msg.sender) Lock {\n        for (uint256 i; i < amount; i++) {\n            IPMT721(PMT721).mint();\n            uint256 currentID = IPMT721(PMT721).getCurrentID();\n\n            GoodsStruct memory goods = GoodsStruct(\n                msg.sender,\n                name,\n                category,\n                data,\n                price,\n                currentID,\n                true,\n                goodsList.length\n            );\n\n            goodsObj[currentID] = goods;\n            goodsList.push(goods);\n        }\n    }\n\n    function buyGoods(uint256 id, uint256 goodsIndex)\n        public\n        payable\n        MustGoodsIsExist(id)\n        MustUser(msg.sender)\n        Lock\n    {\n        GoodsStruct memory goods = goodsObj[id];\n        require(\n            msg.sender != goods.owner,\n            \"Cannot be produced and sold on their own!\"\n        );\n        require(\n            msg.value >= goods.price,\n            \"The amount paid is lower than the price of the commodity!\"\n        );\n        IPMT721(PMT721).safeTransferFrom(address(this), msg.sender, id);\n        assetsObj[msg.sender].push(\n            AssetsStruct(\n                goodsObj[id].category,\n                goodsObj[id].data,\n                id,\n                false,\n                assetsObj[msg.sender].length\n            )\n        );\n        _safeTransferETH(goodsObj[id].owner, msg.value);\n        goodsObj[id].owner = msg.sender;\n        goodsObj[id].isSale = false;\n        goodsList[goodsIndex].owner = msg.sender;\n        goodsList[goodsIndex].isSale = false;\n    }\n\n    function _outfit(\n        uint256 id,\n        uint256 assetsIndex,\n        bool isOutfit\n    ) internal MustGoodsIsExist(id) {\n        require(\n            msg.sender == IPMT721(PMT721).ownerOf(id),\n            \"The current item is not your asset!\"\n        );\n        assetsObj[msg.sender][assetsIndex].isOutfit = isOutfit;\n    }\n\n    function outfit(\n        uint256 id,\n        uint256 index,\n        bool isOutfit\n    ) internal MustGoodsIsExist(id) Lock {\n        _outfit(id, index, isOutfit);\n    }\n\n    function _safeTransferETH(address to, uint256 value) internal {\n        (bool success, ) = to.call{value: value}(new bytes(0));\n        require(\n            success,\n            \"TransferHelper::safeTransferETH: ETH transfer failed\"\n        );\n    }\n\n    function setPMT721(address pmt721) public {\n        PMT721 = IPMT721(pmt721);\n    }\n}\n",
  "sourcePath": "/Users/xiangzhengfeng/Desktop/mine/project/nft-demo/contracts/PixelsMetavers.sol",
  "compiler": {
    "name": "solc",
    "version": "0.8.0+commit.c7dfd78e.Emscripten.clang"
  },
  "schemaVersion": "3.3.4",
  "updatedAt": "2021-09-11T07:03:32.384Z",
  "networkType": "ethereum",
  "devdoc": {
    "kind": "dev",
    "methods": {},
    "version": 1
  },
  "userdoc": {
    "kind": "user",
    "methods": {},
    "version": 1
  }
}