{
  "contractName": "PMT721",
  "abi": [
    {
      "inputs": [],
      "stateMutability": "nonpayable",
      "type": "constructor"
    },
    {
      "anonymous": false,
      "inputs": [
        {
          "indexed": true,
          "internalType": "address",
          "name": "owner",
          "type": "address"
        },
        {
          "indexed": true,
          "internalType": "address",
          "name": "approved",
          "type": "address"
        },
        {
          "indexed": true,
          "internalType": "uint256",
          "name": "tokenId",
          "type": "uint256"
        }
      ],
      "name": "Approval",
      "type": "event"
    },
    {
      "anonymous": false,
      "inputs": [
        {
          "indexed": true,
          "internalType": "address",
          "name": "owner",
          "type": "address"
        },
        {
          "indexed": true,
          "internalType": "address",
          "name": "operator",
          "type": "address"
        },
        {
          "indexed": false,
          "internalType": "bool",
          "name": "approved",
          "type": "bool"
        }
      ],
      "name": "ApprovalForAll",
      "type": "event"
    },
    {
      "anonymous": false,
      "inputs": [
        {
          "indexed": true,
          "internalType": "address",
          "name": "from",
          "type": "address"
        },
        {
          "indexed": true,
          "internalType": "address",
          "name": "to",
          "type": "address"
        },
        {
          "indexed": true,
          "internalType": "uint256",
          "name": "tokenId",
          "type": "uint256"
        }
      ],
      "name": "Transfer",
      "type": "event"
    },
    {
      "inputs": [
        {
          "internalType": "address",
          "name": "to",
          "type": "address"
        },
        {
          "internalType": "uint256",
          "name": "tokenId",
          "type": "uint256"
        }
      ],
      "name": "approve",
      "outputs": [],
      "stateMutability": "nonpayable",
      "type": "function"
    },
    {
      "inputs": [
        {
          "internalType": "address",
          "name": "owner",
          "type": "address"
        }
      ],
      "name": "balanceOf",
      "outputs": [
        {
          "internalType": "uint256",
          "name": "",
          "type": "uint256"
        }
      ],
      "stateMutability": "view",
      "type": "function",
      "constant": true
    },
    {
      "inputs": [
        {
          "internalType": "uint256",
          "name": "tokenId",
          "type": "uint256"
        }
      ],
      "name": "getApproved",
      "outputs": [
        {
          "internalType": "address",
          "name": "",
          "type": "address"
        }
      ],
      "stateMutability": "view",
      "type": "function",
      "constant": true
    },
    {
      "inputs": [
        {
          "internalType": "address",
          "name": "owner",
          "type": "address"
        },
        {
          "internalType": "address",
          "name": "operator",
          "type": "address"
        }
      ],
      "name": "isApprovedForAll",
      "outputs": [
        {
          "internalType": "bool",
          "name": "",
          "type": "bool"
        }
      ],
      "stateMutability": "view",
      "type": "function",
      "constant": true
    },
    {
      "inputs": [],
      "name": "name",
      "outputs": [
        {
          "internalType": "string",
          "name": "",
          "type": "string"
        }
      ],
      "stateMutability": "view",
      "type": "function",
      "constant": true
    },
    {
      "inputs": [
        {
          "internalType": "uint256",
          "name": "tokenId",
          "type": "uint256"
        }
      ],
      "name": "ownerOf",
      "outputs": [
        {
          "internalType": "address",
          "name": "",
          "type": "address"
        }
      ],
      "stateMutability": "view",
      "type": "function",
      "constant": true
    },
    {
      "inputs": [
        {
          "internalType": "address",
          "name": "from",
          "type": "address"
        },
        {
          "internalType": "address",
          "name": "to",
          "type": "address"
        },
        {
          "internalType": "uint256",
          "name": "tokenId",
          "type": "uint256"
        }
      ],
      "name": "safeTransferFrom",
      "outputs": [],
      "stateMutability": "nonpayable",
      "type": "function"
    },
    {
      "inputs": [
        {
          "internalType": "address",
          "name": "from",
          "type": "address"
        },
        {
          "internalType": "address",
          "name": "to",
          "type": "address"
        },
        {
          "internalType": "uint256",
          "name": "tokenId",
          "type": "uint256"
        },
        {
          "internalType": "bytes",
          "name": "_data",
          "type": "bytes"
        }
      ],
      "name": "safeTransferFrom",
      "outputs": [],
      "stateMutability": "nonpayable",
      "type": "function"
    },
    {
      "inputs": [
        {
          "internalType": "address",
          "name": "operator",
          "type": "address"
        },
        {
          "internalType": "bool",
          "name": "approved",
          "type": "bool"
        }
      ],
      "name": "setApprovalForAll",
      "outputs": [],
      "stateMutability": "nonpayable",
      "type": "function"
    },
    {
      "inputs": [
        {
          "internalType": "bytes4",
          "name": "interfaceId",
          "type": "bytes4"
        }
      ],
      "name": "supportsInterface",
      "outputs": [
        {
          "internalType": "bool",
          "name": "",
          "type": "bool"
        }
      ],
      "stateMutability": "view",
      "type": "function",
      "constant": true
    },
    {
      "inputs": [],
      "name": "symbol",
      "outputs": [
        {
          "internalType": "string",
          "name": "",
          "type": "string"
        }
      ],
      "stateMutability": "view",
      "type": "function",
      "constant": true
    },
    {
      "inputs": [
        {
          "internalType": "uint256",
          "name": "tokenId",
          "type": "uint256"
        }
      ],
      "name": "tokenURI",
      "outputs": [
        {
          "internalType": "string",
          "name": "",
          "type": "string"
        }
      ],
      "stateMutability": "view",
      "type": "function",
      "constant": true
    },
    {
      "inputs": [
        {
          "internalType": "address",
          "name": "from",
          "type": "address"
        },
        {
          "internalType": "address",
          "name": "to",
          "type": "address"
        },
        {
          "internalType": "uint256",
          "name": "tokenId",
          "type": "uint256"
        }
      ],
      "name": "transferFrom",
      "outputs": [],
      "stateMutability": "nonpayable",
      "type": "function"
    },
    {
      "inputs": [],
      "name": "mint",
      "outputs": [],
      "stateMutability": "nonpayable",
      "type": "function"
    },
    {
      "inputs": [
        {
          "internalType": "uint256",
          "name": "id",
          "type": "uint256"
        }
      ],
      "name": "exits",
      "outputs": [
        {
          "internalType": "bool",
          "name": "",
          "type": "bool"
        }
      ],
      "stateMutability": "view",
      "type": "function",
      "constant": true
    },
    {
      "inputs": [
        {
          "internalType": "address",
          "name": "minter",
          "type": "address"
        }
      ],
      "name": "setMinter",
      "outputs": [],
      "stateMutability": "nonpayable",
      "type": "function"
    },
    {
      "inputs": [],
      "name": "getMinter",
      "outputs": [
        {
          "internalType": "address",
          "name": "",
          "type": "address"
        }
      ],
      "stateMutability": "view",
      "type": "function",
      "constant": true
    },
    {
      "inputs": [],
      "name": "getCurrentID",
      "outputs": [
        {
          "internalType": "uint256",
          "name": "",
          "type": "uint256"
        }
      ],
      "stateMutability": "view",
      "type": "function",
      "constant": true
    }
  ],
  "bytecode": "0x60806040523480156200001157600080fd5b506040518060400160405280600e81526020017f506978656c734d657461766572730000000000000000000000000000000000008152506040518060400160405280600381526020017f504d540000000000000000000000000000000000000000000000000000000000815250816000908051906020019062000096929190620000f9565b508060019080519060200190620000af929190620000f9565b50505033600760006101000a81548173ffffffffffffffffffffffffffffffffffffffff021916908373ffffffffffffffffffffffffffffffffffffffff1602179055506200020e565b8280546200010790620001a9565b90600052602060002090601f0160209004810192826200012b576000855562000177565b82601f106200014657805160ff191683800117855562000177565b8280016001018555821562000177579182015b828111156200017657825182559160200191906001019062000159565b5b5090506200018691906200018a565b5090565b5b80821115620001a55760008160009055506001016200018b565b5090565b60006002820490506001821680620001c257607f821691505b60208210811415620001d957620001d8620001df565b5b50919050565b7f4e487b7100000000000000000000000000000000000000000000000000000000600052602260045260246000fd5b612914806200021e6000396000f3fe608060405234801561001057600080fd5b50600436106101165760003560e01c806370a08231116100a2578063c87b56dd11610071578063c87b56dd146102dd578063e985e9c51461030d578063ef1e7df31461033d578063f36675171461035b578063fca3b5aa1461037957610116565b806370a082311461025757806395d89b4114610287578063a22cb465146102a5578063b88d4fde146102c157610116565b80631249c58b116100e95780631249c58b146101b557806323b872dd146101bf578063342de179146101db57806342842e0e1461020b5780636352211e1461022757610116565b806301ffc9a71461011b57806306fdde031461014b578063081812fc14610169578063095ea7b314610199575b600080fd5b61013560048036038101906101309190611b24565b610395565b604051610142919061229c565b60405180910390f35b610153610477565b60405161016091906122b7565b60405180910390f35b610183600480360381019061017e9190611b76565b610509565b6040516101909190612235565b60405180910390f35b6101b360048036038101906101ae9190611ae8565b61058e565b005b6101bd6106a6565b005b6101d960048036038101906101d491906119e2565b61075d565b005b6101f560048036038101906101f09190611b76565b6107bd565b604051610202919061229c565b60405180910390f35b610225600480360381019061022091906119e2565b6107cf565b005b610241600480360381019061023c9190611b76565b6107ef565b60405161024e9190612235565b60405180910390f35b610271600480360381019061026c919061197d565b6108a1565b60405161027e91906124d9565b60405180910390f35b61028f610959565b60405161029c91906122b7565b60405180910390f35b6102bf60048036038101906102ba9190611aac565b6109eb565b005b6102db60048036038101906102d69190611a31565b610b6c565b005b6102f760048036038101906102f29190611b76565b610bce565b60405161030491906122b7565b60405180910390f35b610327600480360381019061032291906119a6565b610c75565b604051610334919061229c565b60405180910390f35b610345610d09565b60405161035291906124d9565b60405180910390f35b610363610d1a565b6040516103709190612235565b60405180910390f35b610393600480360381019061038e919061197d565b610d44565b005b60007f80ac58cd000000000000000000000000000000000000000000000000000000007bffffffffffffffffffffffffffffffffffffffffffffffffffffffff1916827bffffffffffffffffffffffffffffffffffffffffffffffffffffffff1916148061046057507f5b5e139f000000000000000000000000000000000000000000000000000000007bffffffffffffffffffffffffffffffffffffffffffffffffffffffff1916827bffffffffffffffffffffffffffffffffffffffffffffffffffffffff1916145b80610470575061046f82610e1a565b5b9050919050565b60606000805461048690612709565b80601f01602080910402602001604051908101604052809291908181526020018280546104b290612709565b80156104ff5780601f106104d4576101008083540402835291602001916104ff565b820191906000526020600020905b8154815290600101906020018083116104e257829003601f168201915b5050505050905090565b600061051482610e84565b610553576040517f08c379a000000000000000000000000000000000000000000000000000000000815260040161054a90612419565b60405180910390fd5b6004600083815260200190815260200160002060009054906101000a900473ffffffffffffffffffffffffffffffffffffffff169050919050565b6000610599826107ef565b90508073ffffffffffffffffffffffffffffffffffffffff168373ffffffffffffffffffffffffffffffffffffffff16141561060a576040517f08c379a000000000000000000000000000000000000000000000000000000000815260040161060190612499565b60405180910390fd5b8073ffffffffffffffffffffffffffffffffffffffff16610629610ef0565b73ffffffffffffffffffffffffffffffffffffffff161480610658575061065781610652610ef0565b610c75565b5b610697576040517f08c379a000000000000000000000000000000000000000000000000000000000815260040161068e90612399565b60405180910390fd5b6106a18383610ef8565b505050565b33600860009054906101000a900473ffffffffffffffffffffffffffffffffffffffff1673ffffffffffffffffffffffffffffffffffffffff168173ffffffffffffffffffffffffffffffffffffffff1614610737576040517f08c379a000000000000000000000000000000000000000000000000000000000815260040161072e906122f9565b60405180910390fd5b6107416006610fb1565b600061074d6006610fc7565b90506107593382610fd5565b5050565b61076e610768610ef0565b826111a3565b6107ad576040517f08c379a00000000000000000000000000000000000000000000000000000000081526004016107a4906124b9565b60405180910390fd5b6107b8838383611281565b505050565b60006107c882610e84565b9050919050565b6107ea83838360405180602001604052806000815250610b6c565b505050565b6000806002600084815260200190815260200160002060009054906101000a900473ffffffffffffffffffffffffffffffffffffffff169050600073ffffffffffffffffffffffffffffffffffffffff168173ffffffffffffffffffffffffffffffffffffffff161415610898576040517f08c379a000000000000000000000000000000000000000000000000000000000815260040161088f906123d9565b60405180910390fd5b80915050919050565b60008073ffffffffffffffffffffffffffffffffffffffff168273ffffffffffffffffffffffffffffffffffffffff161415610912576040517f08c379a0000000000000000000000000000000000000000000000000000000008152600401610909906123b9565b60405180910390fd5b600360008373ffffffffffffffffffffffffffffffffffffffff1673ffffffffffffffffffffffffffffffffffffffff168152602001908152602001600020549050919050565b60606001805461096890612709565b80601f016020809104026020016040519081016040528092919081815260200182805461099490612709565b80156109e15780601f106109b6576101008083540402835291602001916109e1565b820191906000526020600020905b8154815290600101906020018083116109c457829003601f168201915b5050505050905090565b6109f3610ef0565b73ffffffffffffffffffffffffffffffffffffffff168273ffffffffffffffffffffffffffffffffffffffff161415610a61576040517f08c379a0000000000000000000000000000000000000000000000000000000008152600401610a5890612359565b60405180910390fd5b8060056000610a6e610ef0565b73ffffffffffffffffffffffffffffffffffffffff1673ffffffffffffffffffffffffffffffffffffffff16815260200190815260200160002060008473ffffffffffffffffffffffffffffffffffffffff1673ffffffffffffffffffffffffffffffffffffffff16815260200190815260200160002060006101000a81548160ff0219169083151502179055508173ffffffffffffffffffffffffffffffffffffffff16610b1b610ef0565b73ffffffffffffffffffffffffffffffffffffffff167f17307eab39ab6107e8899845ad3d59bd9653f200f220920489ca2b5937696c3183604051610b60919061229c565b60405180910390a35050565b610b7d610b77610ef0565b836111a3565b610bbc576040517f08c379a0000000000000000000000000000000000000000000000000000000008152600401610bb3906124b9565b60405180910390fd5b610bc8848484846114dd565b50505050565b6060610bd982610e84565b610c18576040517f08c379a0000000000000000000000000000000000000000000000000000000008152600401610c0f90612459565b60405180910390fd5b6000610c22611539565b90506000815111610c425760405180602001604052806000815250610c6d565b80610c4c84611550565b604051602001610c5d929190612211565b6040516020818303038152906040525b915050919050565b6000600560008473ffffffffffffffffffffffffffffffffffffffff1673ffffffffffffffffffffffffffffffffffffffff16815260200190815260200160002060008373ffffffffffffffffffffffffffffffffffffffff1673ffffffffffffffffffffffffffffffffffffffff16815260200190815260200160002060009054906101000a900460ff16905092915050565b6000610d156006610fc7565b905090565b6000600860009054906101000a900473ffffffffffffffffffffffffffffffffffffffff16905090565b33600760009054906101000a900473ffffffffffffffffffffffffffffffffffffffff1673ffffffffffffffffffffffffffffffffffffffff168173ffffffffffffffffffffffffffffffffffffffff1614610dd5576040517f08c379a0000000000000000000000000000000000000000000000000000000008152600401610dcc90612479565b60405180910390fd5b81600860006101000a81548173ffffffffffffffffffffffffffffffffffffffff021916908373ffffffffffffffffffffffffffffffffffffffff1602179055505050565b60007f01ffc9a7000000000000000000000000000000000000000000000000000000007bffffffffffffffffffffffffffffffffffffffffffffffffffffffff1916827bffffffffffffffffffffffffffffffffffffffffffffffffffffffff1916149050919050565b60008073ffffffffffffffffffffffffffffffffffffffff166002600084815260200190815260200160002060009054906101000a900473ffffffffffffffffffffffffffffffffffffffff1673ffffffffffffffffffffffffffffffffffffffff1614159050919050565b600033905090565b816004600083815260200190815260200160002060006101000a81548173ffffffffffffffffffffffffffffffffffffffff021916908373ffffffffffffffffffffffffffffffffffffffff160217905550808273ffffffffffffffffffffffffffffffffffffffff16610f6b836107ef565b73ffffffffffffffffffffffffffffffffffffffff167f8c5be1e5ebec7d5bd14f71427d1e84f3dd0314c0f7b2291e5b200ac8c7c3b92560405160405180910390a45050565b6001816000016000828254019250508190555050565b600081600001549050919050565b600073ffffffffffffffffffffffffffffffffffffffff168273ffffffffffffffffffffffffffffffffffffffff161415611045576040517f08c379a000000000000000000000000000000000000000000000000000000000815260040161103c906123f9565b60405180910390fd5b61104e81610e84565b1561108e576040517f08c379a000000000000000000000000000000000000000000000000000000000815260040161108590612319565b60405180910390fd5b61109a600083836116fd565b6001600360008473ffffffffffffffffffffffffffffffffffffffff1673ffffffffffffffffffffffffffffffffffffffff16815260200190815260200160002060008282546110ea9190612598565b92505081905550816002600083815260200190815260200160002060006101000a81548173ffffffffffffffffffffffffffffffffffffffff021916908373ffffffffffffffffffffffffffffffffffffffff160217905550808273ffffffffffffffffffffffffffffffffffffffff16600073ffffffffffffffffffffffffffffffffffffffff167fddf252ad1be2c89b69c2b068fc378daa952ba7f163c4a11628f55a4df523b3ef60405160405180910390a45050565b60006111ae82610e84565b6111ed576040517f08c379a00000000000000000000000000000000000000000000000000000000081526004016111e490612379565b60405180910390fd5b60006111f8836107ef565b90508073ffffffffffffffffffffffffffffffffffffffff168473ffffffffffffffffffffffffffffffffffffffff16148061126757508373ffffffffffffffffffffffffffffffffffffffff1661124f84610509565b73ffffffffffffffffffffffffffffffffffffffff16145b8061127857506112778185610c75565b5b91505092915050565b8273ffffffffffffffffffffffffffffffffffffffff166112a1826107ef565b73ffffffffffffffffffffffffffffffffffffffff16146112f7576040517f08c379a00000000000000000000000000000000000000000000000000000000081526004016112ee90612439565b60405180910390fd5b600073ffffffffffffffffffffffffffffffffffffffff168273ffffffffffffffffffffffffffffffffffffffff161415611367576040517f08c379a000000000000000000000000000000000000000000000000000000000815260040161135e90612339565b60405180910390fd5b6113728383836116fd565b61137d600082610ef8565b6001600360008573ffffffffffffffffffffffffffffffffffffffff1673ffffffffffffffffffffffffffffffffffffffff16815260200190815260200160002060008282546113cd919061261f565b925050819055506001600360008473ffffffffffffffffffffffffffffffffffffffff1673ffffffffffffffffffffffffffffffffffffffff16815260200190815260200160002060008282546114249190612598565b92505081905550816002600083815260200190815260200160002060006101000a81548173ffffffffffffffffffffffffffffffffffffffff021916908373ffffffffffffffffffffffffffffffffffffffff160217905550808273ffffffffffffffffffffffffffffffffffffffff168473ffffffffffffffffffffffffffffffffffffffff167fddf252ad1be2c89b69c2b068fc378daa952ba7f163c4a11628f55a4df523b3ef60405160405180910390a4505050565b6114e8848484611281565b6114f484848484611702565b611533576040517f08c379a000000000000000000000000000000000000000000000000000000000815260040161152a906122d9565b60405180910390fd5b50505050565b606060405180602001604052806000815250905090565b60606000821415611598576040518060400160405280600181526020017f300000000000000000000000000000000000000000000000000000000000000081525090506116f8565b600082905060005b600082146115ca5780806115b39061273b565b915050600a826115c391906125ee565b91506115a0565b60008167ffffffffffffffff81111561160c577f4e487b7100000000000000000000000000000000000000000000000000000000600052604160045260246000fd5b6040519080825280601f01601f19166020018201604052801561163e5781602001600182028036833780820191505090505b5090505b600085146116f157600182611657919061261f565b9150600a856116669190612784565b60306116729190612598565b60f81b8183815181106116ae577f4e487b7100000000000000000000000000000000000000000000000000000000600052603260045260246000fd5b60200101907effffffffffffffffffffffffffffffffffffffffffffffffffffffffffffff1916908160001a905350600a856116ea91906125ee565b9450611642565b8093505050505b919050565b505050565b60006117238473ffffffffffffffffffffffffffffffffffffffff16611899565b1561188c578373ffffffffffffffffffffffffffffffffffffffff1663150b7a0261174c610ef0565b8786866040518563ffffffff1660e01b815260040161176e9493929190612250565b602060405180830381600087803b15801561178857600080fd5b505af19250505080156117b957506040513d601f19601f820116820180604052508101906117b69190611b4d565b60015b61183c573d80600081146117e9576040519150601f19603f3d011682016040523d82523d6000602084013e6117ee565b606091505b50600081511415611834576040517f08c379a000000000000000000000000000000000000000000000000000000000815260040161182b906122d9565b60405180910390fd5b805181602001fd5b63150b7a0260e01b7bffffffffffffffffffffffffffffffffffffffffffffffffffffffff1916817bffffffffffffffffffffffffffffffffffffffffffffffffffffffff191614915050611891565b600190505b949350505050565b600080823b905060008111915050919050565b60006118bf6118ba84612525565b6124f4565b9050828152602081018484840111156118d757600080fd5b6118e28482856126c7565b509392505050565b6000813590506118f981612882565b92915050565b60008135905061190e81612899565b92915050565b600081359050611923816128b0565b92915050565b600081519050611938816128b0565b92915050565b600082601f83011261194f57600080fd5b813561195f8482602086016118ac565b91505092915050565b600081359050611977816128c7565b92915050565b60006020828403121561198f57600080fd5b600061199d848285016118ea565b91505092915050565b600080604083850312156119b957600080fd5b60006119c7858286016118ea565b92505060206119d8858286016118ea565b9150509250929050565b6000806000606084860312156119f757600080fd5b6000611a05868287016118ea565b9350506020611a16868287016118ea565b9250506040611a2786828701611968565b9150509250925092565b60008060008060808587031215611a4757600080fd5b6000611a55878288016118ea565b9450506020611a66878288016118ea565b9350506040611a7787828801611968565b925050606085013567ffffffffffffffff811115611a9457600080fd5b611aa08782880161193e565b91505092959194509250565b60008060408385031215611abf57600080fd5b6000611acd858286016118ea565b9250506020611ade858286016118ff565b9150509250929050565b60008060408385031215611afb57600080fd5b6000611b09858286016118ea565b9250506020611b1a85828601611968565b9150509250929050565b600060208284031215611b3657600080fd5b6000611b4484828501611914565b91505092915050565b600060208284031215611b5f57600080fd5b6000611b6d84828501611929565b91505092915050565b600060208284031215611b8857600080fd5b6000611b9684828501611968565b91505092915050565b611ba881612653565b82525050565b611bb781612665565b82525050565b6000611bc882612555565b611bd2818561256b565b9350611be28185602086016126d6565b611beb81612871565b840191505092915050565b6000611c0182612560565b611c0b818561257c565b9350611c1b8185602086016126d6565b611c2481612871565b840191505092915050565b6000611c3a82612560565b611c44818561258d565b9350611c548185602086016126d6565b80840191505092915050565b6000611c6d60328361257c565b91507f4552433732313a207472616e7366657220746f206e6f6e20455243373231526560008301527f63656976657220696d706c656d656e74657200000000000000000000000000006020830152604082019050919050565b6000611cd360168361257c565b91507f4f6e6c79204d696e7465722043616e20446f20497421000000000000000000006000830152602082019050919050565b6000611d13601c8361257c565b91507f4552433732313a20746f6b656e20616c7265616479206d696e746564000000006000830152602082019050919050565b6000611d5360248361257c565b91507f4552433732313a207472616e7366657220746f20746865207a65726f2061646460008301527f72657373000000000000000000000000000000000000000000000000000000006020830152604082019050919050565b6000611db960198361257c565b91507f4552433732313a20617070726f766520746f2063616c6c6572000000000000006000830152602082019050919050565b6000611df9602c8361257c565b91507f4552433732313a206f70657261746f7220717565727920666f72206e6f6e657860008301527f697374656e7420746f6b656e00000000000000000000000000000000000000006020830152604082019050919050565b6000611e5f60388361257c565b91507f4552433732313a20617070726f76652063616c6c6572206973206e6f74206f7760008301527f6e6572206e6f7220617070726f76656420666f7220616c6c00000000000000006020830152604082019050919050565b6000611ec5602a8361257c565b91507f4552433732313a2062616c616e636520717565727920666f7220746865207a6560008301527f726f2061646472657373000000000000000000000000000000000000000000006020830152604082019050919050565b6000611f2b60298361257c565b91507f4552433732313a206f776e657220717565727920666f72206e6f6e657869737460008301527f656e7420746f6b656e00000000000000000000000000000000000000000000006020830152604082019050919050565b6000611f9160208361257c565b91507f4552433732313a206d696e7420746f20746865207a65726f20616464726573736000830152602082019050919050565b6000611fd1602c8361257c565b91507f4552433732313a20617070726f76656420717565727920666f72206e6f6e657860008301527f697374656e7420746f6b656e00000000000000000000000000000000000000006020830152604082019050919050565b600061203760298361257c565b91507f4552433732313a207472616e73666572206f6620746f6b656e2074686174206960008301527f73206e6f74206f776e00000000000000000000000000000000000000000000006020830152604082019050919050565b600061209d602f8361257c565b91507f4552433732314d657461646174613a2055524920717565727920666f72206e6f60008301527f6e6578697374656e7420746f6b656e00000000000000000000000000000000006020830152604082019050919050565b600061210360158361257c565b91507f4f6e6c79204f776e65722043616e20446f2049742100000000000000000000006000830152602082019050919050565b600061214360218361257c565b91507f4552433732313a20617070726f76616c20746f2063757272656e74206f776e6560008301527f72000000000000000000000000000000000000000000000000000000000000006020830152604082019050919050565b60006121a960318361257c565b91507f4552433732313a207472616e736665722063616c6c6572206973206e6f74206f60008301527f776e6572206e6f7220617070726f7665640000000000000000000000000000006020830152604082019050919050565b61220b816126bd565b82525050565b600061221d8285611c2f565b91506122298284611c2f565b91508190509392505050565b600060208201905061224a6000830184611b9f565b92915050565b60006080820190506122656000830187611b9f565b6122726020830186611b9f565b61227f6040830185612202565b81810360608301526122918184611bbd565b905095945050505050565b60006020820190506122b16000830184611bae565b92915050565b600060208201905081810360008301526122d18184611bf6565b905092915050565b600060208201905081810360008301526122f281611c60565b9050919050565b6000602082019050818103600083015261231281611cc6565b9050919050565b6000602082019050818103600083015261233281611d06565b9050919050565b6000602082019050818103600083015261235281611d46565b9050919050565b6000602082019050818103600083015261237281611dac565b9050919050565b6000602082019050818103600083015261239281611dec565b9050919050565b600060208201905081810360008301526123b281611e52565b9050919050565b600060208201905081810360008301526123d281611eb8565b9050919050565b600060208201905081810360008301526123f281611f1e565b9050919050565b6000602082019050818103600083015261241281611f84565b9050919050565b6000602082019050818103600083015261243281611fc4565b9050919050565b600060208201905081810360008301526124528161202a565b9050919050565b6000602082019050818103600083015261247281612090565b9050919050565b60006020820190508181036000830152612492816120f6565b9050919050565b600060208201905081810360008301526124b281612136565b9050919050565b600060208201905081810360008301526124d28161219c565b9050919050565b60006020820190506124ee6000830184612202565b92915050565b6000604051905081810181811067ffffffffffffffff8211171561251b5761251a612842565b5b8060405250919050565b600067ffffffffffffffff8211156125405761253f612842565b5b601f19601f8301169050602081019050919050565b600081519050919050565b600081519050919050565b600082825260208201905092915050565b600082825260208201905092915050565b600081905092915050565b60006125a3826126bd565b91506125ae836126bd565b9250827fffffffffffffffffffffffffffffffffffffffffffffffffffffffffffffffff038211156125e3576125e26127b5565b5b828201905092915050565b60006125f9826126bd565b9150612604836126bd565b925082612614576126136127e4565b5b828204905092915050565b600061262a826126bd565b9150612635836126bd565b925082821015612648576126476127b5565b5b828203905092915050565b600061265e8261269d565b9050919050565b60008115159050919050565b60007fffffffff0000000000000000000000000000000000000000000000000000000082169050919050565b600073ffffffffffffffffffffffffffffffffffffffff82169050919050565b6000819050919050565b82818337600083830152505050565b60005b838110156126f45780820151818401526020810190506126d9565b83811115612703576000848401525b50505050565b6000600282049050600182168061272157607f821691505b6020821081141561273557612734612813565b5b50919050565b6000612746826126bd565b91507fffffffffffffffffffffffffffffffffffffffffffffffffffffffffffffffff821415612779576127786127b5565b5b600182019050919050565b600061278f826126bd565b915061279a836126bd565b9250826127aa576127a96127e4565b5b828206905092915050565b7f4e487b7100000000000000000000000000000000000000000000000000000000600052601160045260246000fd5b7f4e487b7100000000000000000000000000000000000000000000000000000000600052601260045260246000fd5b7f4e487b7100000000000000000000000000000000000000000000000000000000600052602260045260246000fd5b7f4e487b7100000000000000000000000000000000000000000000000000000000600052604160045260246000fd5b6000601f19601f8301169050919050565b61288b81612653565b811461289657600080fd5b50565b6128a281612665565b81146128ad57600080fd5b50565b6128b981612671565b81146128c457600080fd5b50565b6128d0816126bd565b81146128db57600080fd5b5056fea26469706673582212204ee4823e8a224245bc5d309fbccb40a86313f03f266ac2e0c88c7364e724b54564736f6c63430008000033",
  "immutableReferences": {},
  "source": "// SPDX-License-Identifier: GPL-3.0\npragma solidity ^0.8.0;\n\nimport \"@openzeppelin/contracts/token/ERC721/ERC721.sol\";\nimport \"@openzeppelin/contracts/utils/Counters.sol\";\n\ncontract PMT721 is ERC721 {\n    using Counters for Counters.Counter;\n    Counters.Counter private _tokenId;\n    address _owner;\n    address _minter;\n\n    modifier MustMinter(address from) {\n        require(from == _minter, \"Only Minter Can Do It!\");\n        _;\n    }\n\n    modifier MustOwner(address from) {\n        require(from == _owner, \"Only Owner Can Do It!\");\n        _;\n    }\n\n    constructor() ERC721(\"PixelsMetavers\", \"PMT\") {\n        _owner = msg.sender;\n    }\n\n    function mint() public MustMinter(msg.sender) {\n        _tokenId.increment();\n        uint256 id = _tokenId.current();\n        _mint(msg.sender, id);\n    }\n\n    function exits(uint256 id) public view returns (bool) {\n        return _exists(id);\n    }\n\n    function setMinter(address minter) public MustOwner(msg.sender) {\n        _minter = minter;\n    }\n\n    function getMinter() public view returns (address) {\n        return _minter;\n    }\n\n    function getCurrentID() public view returns (uint256) {\n        return _tokenId.current();\n    }\n}\n",
  "sourcePath": "/Users/xiangzhengfeng/Desktop/mine/project/pixels-metavers/contracts/PMT721.sol",
  "compiler": {
    "name": "solc",
    "version": "0.8.0+commit.c7dfd78e.Emscripten.clang"
  },
  "schemaVersion": "3.3.4",
  "updatedAt": "2021-09-14T10:36:18.981Z",
  "networkType": "ethereum",
  "devdoc": {
    "kind": "dev",
    "methods": {
      "approve(address,uint256)": {
        "details": "See {IERC721-approve}."
      },
      "balanceOf(address)": {
        "details": "See {IERC721-balanceOf}."
      },
      "getApproved(uint256)": {
        "details": "See {IERC721-getApproved}."
      },
      "isApprovedForAll(address,address)": {
        "details": "See {IERC721-isApprovedForAll}."
      },
      "name()": {
        "details": "See {IERC721Metadata-name}."
      },
      "ownerOf(uint256)": {
        "details": "See {IERC721-ownerOf}."
      },
      "safeTransferFrom(address,address,uint256)": {
        "details": "See {IERC721-safeTransferFrom}."
      },
      "safeTransferFrom(address,address,uint256,bytes)": {
        "details": "See {IERC721-safeTransferFrom}."
      },
      "setApprovalForAll(address,bool)": {
        "details": "See {IERC721-setApprovalForAll}."
      },
      "supportsInterface(bytes4)": {
        "details": "See {IERC165-supportsInterface}."
      },
      "symbol()": {
        "details": "See {IERC721Metadata-symbol}."
      },
      "tokenURI(uint256)": {
        "details": "See {IERC721Metadata-tokenURI}."
      },
      "transferFrom(address,address,uint256)": {
        "details": "See {IERC721-transferFrom}."
      }
    },
    "version": 1
  },
  "userdoc": {
    "kind": "user",
    "methods": {},
    "version": 1
  }
}