{
  "contractName": "Todolist",
  "abi": [
    {
      "anonymous": false,
      "inputs": [
        {
          "indexed": false,
          "internalType": "uint256",
          "name": "id",
          "type": "uint256"
        },
        {
          "indexed": false,
          "internalType": "uint256",
          "name": "time",
          "type": "uint256"
        },
        {
          "indexed": false,
          "internalType": "string",
          "name": "content",
          "type": "string"
        },
        {
          "indexed": false,
          "internalType": "address",
          "name": "writer",
          "type": "address"
        },
        {
          "indexed": false,
          "internalType": "string",
          "name": "types",
          "type": "string"
        }
      ],
      "name": "HandleList",
      "type": "event"
    },
    {
      "constant": true,
      "inputs": [
        {
          "internalType": "uint256",
          "name": "",
          "type": "uint256"
        }
      ],
      "name": "lists",
      "outputs": [
        {
          "internalType": "uint256",
          "name": "id",
          "type": "uint256"
        },
        {
          "internalType": "uint256",
          "name": "time",
          "type": "uint256"
        },
        {
          "internalType": "string",
          "name": "content",
          "type": "string"
        },
        {
          "internalType": "address",
          "name": "writer",
          "type": "address"
        },
        {
          "internalType": "bool",
          "name": "isDone",
          "type": "bool"
        }
      ],
      "payable": false,
      "stateMutability": "view",
      "type": "function"
    },
    {
      "constant": false,
      "inputs": [
        {
          "internalType": "string",
          "name": "content",
          "type": "string"
        }
      ],
      "name": "add",
      "outputs": [],
      "payable": false,
      "stateMutability": "nonpayable",
      "type": "function"
    },
    {
      "constant": true,
      "inputs": [],
      "name": "getLength",
      "outputs": [
        {
          "internalType": "uint256",
          "name": "",
          "type": "uint256"
        }
      ],
      "payable": false,
      "stateMutability": "view",
      "type": "function"
    },
    {
      "constant": false,
      "inputs": [
        {
          "internalType": "uint256",
          "name": "id",
          "type": "uint256"
        }
      ],
      "name": "done",
      "outputs": [],
      "payable": false,
      "stateMutability": "nonpayable",
      "type": "function"
    },
    {
      "constant": false,
      "inputs": [
        {
          "internalType": "uint256",
          "name": "id",
          "type": "uint256"
        }
      ],
      "name": "remove",
      "outputs": [],
      "payable": false,
      "stateMutability": "nonpayable",
      "type": "function"
    }
  ],
  "bytecode": "0x608060405234801561001057600080fd5b50610e2f806100206000396000f3fe608060405234801561001057600080fd5b50600436106100575760003560e01c80634cc822151461005c57806358a743c71461008a57806396102cf4146100b8578063b0c8f9dc146101ab578063be1c766b14610266575b600080fd5b6100886004803603602081101561007257600080fd5b8101908080359060200190929190505050610284565b005b6100b6600480360360208110156100a057600080fd5b8101908080359060200190929190505050610576565b005b6100e4600480360360208110156100ce57600080fd5b8101908080359060200190929190505050610805565b60405180868152602001858152602001806020018473ffffffffffffffffffffffffffffffffffffffff1673ffffffffffffffffffffffffffffffffffffffff16815260200183151515158152602001828103825285818151815260200191508051906020019080838360005b8381101561016c578082015181840152602081019050610151565b50505050905090810190601f1680156101995780820380516001836020036101000a031916815260200191505b50965050505050505060405180910390f35b610264600480360360208110156101c157600080fd5b81019080803590602001906401000000008111156101de57600080fd5b8201836020820111156101f057600080fd5b8035906020019184600183028401116401000000008311171561021257600080fd5b91908080601f016020809104026020016040519081016040528093929190818152602001838380828437600081840152601f19601f82011690508083019250505050505050919291929050505061090d565b005b61026e610c80565b6040518082815260200191505060405180910390f35b80600180549050811115610300576040517f08c379a000000000000000000000000000000000000000000000000000000000815260040180806020018281038252600a8152602001807f6964206e6f2066756e640000000000000000000000000000000000000000000081525060200191505060405180910390fd5b6000811015610377576040517f08c379a000000000000000000000000000000000000000000000000000000000815260040180806020018281038252600a8152602001807f6964206e6f2066756e640000000000000000000000000000000000000000000081525060200191505060405180910390fd5b60006001838154811061038657fe5b90600052602060002090600402019050600115158160030160149054906101000a900460ff161515146103b857600080fd5b7f5a140a2ccdc8111510afcaa6c8bfead7ff1ede5c198e2012cdfaf671fb457a488342836002013360405180858152602001848152602001806020018373ffffffffffffffffffffffffffffffffffffffff1673ffffffffffffffffffffffffffffffffffffffff168152602001806020018381038352858181546001816001161561010002031660029004815260200191508054600181600116156101000203166002900480156104ab5780601f10610480576101008083540402835291602001916104ab565b820191906000526020600020905b81548152906001019060200180831161048e57829003601f168201915b5050838103825260068152602001807f72656d6f76650000000000000000000000000000000000000000000000000000815250602001965050505050505060405180910390a1600183815481106104fe57fe5b9060005260206000209060040201600080820160009055600182016000905560028201600061052d9190610c8d565b6003820160006101000a81549073ffffffffffffffffffffffffffffffffffffffff02191690556003820160146101000a81549060ff0219169055505082600081905550505050565b806001805490508111156105f2576040517f08c379a000000000000000000000000000000000000000000000000000000000815260040180806020018281038252600a8152602001807f6964206e6f2066756e640000000000000000000000000000000000000000000081525060200191505060405180910390fd5b6000811015610669576040517f08c379a000000000000000000000000000000000000000000000000000000000815260040180806020018281038252600a8152602001807f6964206e6f2066756e640000000000000000000000000000000000000000000081525060200191505060405180910390fd5b60006001838154811061067857fe5b90600052602060002090600402019050600015158160030160149054906101000a900460ff161515146106aa57600080fd5b60018160030160146101000a81548160ff0219169083151502179055507f5a140a2ccdc8111510afcaa6c8bfead7ff1ede5c198e2012cdfaf671fb457a488342836002013360405180858152602001848152602001806020018373ffffffffffffffffffffffffffffffffffffffff1673ffffffffffffffffffffffffffffffffffffffff168152602001806020018381038352858181546001816001161561010002031660029004815260200191508054600181600116156101000203166002900480156107ba5780601f1061078f576101008083540402835291602001916107ba565b820191906000526020600020905b81548152906001019060200180831161079d57829003601f168201915b5050838103825260048152602001807f646f6e6500000000000000000000000000000000000000000000000000000000815250602001965050505050505060405180910390a1505050565b6001818154811061081257fe5b9060005260206000209060040201600091509050806000015490806001015490806002018054600181600116156101000203166002900480601f0160208091040260200160405190810160405280929190818152602001828054600181600116156101000203166002900480156108ca5780601f1061089f576101008083540402835291602001916108ca565b820191906000526020600020905b8154815290600101906020018083116108ad57829003601f168201915b5050505050908060030160009054906101000a900473ffffffffffffffffffffffffffffffffffffffff16908060030160149054906101000a900460ff16905085565b7f5a140a2ccdc8111510afcaa6c8bfead7ff1ede5c198e2012cdfaf671fb457a4860005442833360405180858152602001848152602001806020018373ffffffffffffffffffffffffffffffffffffffff1673ffffffffffffffffffffffffffffffffffffffff16815260200180602001838103835285818151815260200191508051906020019080838360005b838110156109b657808201518184015260208101905061099b565b50505050905090810190601f1680156109e35780820380516001836020036101000a031916815260200191505b50838103825260038152602001807f6164640000000000000000000000000000000000000000000000000000000000815250602001965050505050505060405180910390a16001805490506000541415610b575760016040518060a0016040528060005481526020014281526020018381526020013373ffffffffffffffffffffffffffffffffffffffff168152602001600015158152509080600181540180825580915050906001820390600052602060002090600402016000909192909190915060008201518160000155602082015181600101556040820151816002019080519060200190610ad6929190610cd5565b5060608201518160030160006101000a81548173ffffffffffffffffffffffffffffffffffffffff021916908373ffffffffffffffffffffffffffffffffffffffff16021790555060808201518160030160146101000a81548160ff0219169083151502179055505050506000808154809291906001019190505550610c7d565b600054600160005481548110610b6957fe5b90600052602060002090600402016000018190555042600160005481548110610b8e57fe5b90600052602060002090600402016001018190555080600160005481548110610bb357fe5b90600052602060002090600402016002019080519060200190610bd7929190610d55565b5033600160005481548110610be857fe5b906000526020600020906004020160030160006101000a81548173ffffffffffffffffffffffffffffffffffffffff021916908373ffffffffffffffffffffffffffffffffffffffff1602179055506000600160005481548110610c4857fe5b906000526020600020906004020160030160146101000a81548160ff0219169083151502179055506001805490506000819055505b50565b6000600180549050905090565b50805460018160011615610100020316600290046000825580601f10610cb35750610cd2565b601f016020900490600052602060002090810190610cd19190610dd5565b5b50565b828054600181600116156101000203166002900490600052602060002090601f016020900481019282601f10610d1657805160ff1916838001178555610d44565b82800160010185558215610d44579182015b82811115610d43578251825591602001919060010190610d28565b5b509050610d519190610dd5565b5090565b828054600181600116156101000203166002900490600052602060002090601f016020900481019282601f10610d9657805160ff1916838001178555610dc4565b82800160010185558215610dc4579182015b82811115610dc3578251825591602001919060010190610da8565b5b509050610dd19190610dd5565b5090565b610df791905b80821115610df3576000816000905550600101610ddb565b5090565b9056fea265627a7a72315820497a7d007cd6afed16a45641c8814f31f90dbe51e83f80ef7cb1ea49c7e4626f64736f6c63430005100032",
  "source": "// SPDX-License-Identifier: GPL-3.0\npragma solidity >=0.4.22 <0.9.0;\n\ncontract Todolist {\n    uint256 index;\n\n    struct List {\n        uint256 id; // id\n        uint256 time; // 时间\n        string content; // 内容\n        address writer; // 写入者\n        bool isDone; // 是否完成\n    }\n\n    List[] public lists;\n\n    event HandleList(\n        uint256 id,\n        uint256 time,\n        string content,\n        address writer,\n        string types\n    );\n\n    modifier LegalId(uint256 id) {\n        require(id <= lists.length, \"id no fund\");\n        require(id >= 0, \"id no fund\");\n        _;\n    }\n\n    function add(string memory content) public {\n        emit HandleList(index, block.timestamp, content, msg.sender, \"add\");\n        if (index == lists.length) {\n            lists.push(\n                List(index, block.timestamp, content, msg.sender, false)\n            );\n            index++;\n        } else {\n            lists[index].id = index;\n            lists[index].time = block.timestamp;\n            lists[index].content = content;\n            lists[index].writer = msg.sender;\n            lists[index].isDone = false;\n\n            index = lists.length;\n        }\n    }\n\n    function getLength() public view returns (uint256) {\n        return lists.length;\n    }\n\n    function done(uint256 id) public LegalId(id) {\n        List storage list = lists[id];\n        require(list.isDone == false);\n        list.isDone = true;\n        emit HandleList(id, block.timestamp, list.content, msg.sender, \"done\");\n    }\n\n    function remove(uint256 id) public LegalId(id) {\n        List storage list = lists[id];\n        require(list.isDone == true);\n        emit HandleList(id, block.timestamp, list.content, msg.sender, \"remove\");\n        delete lists[id];\n        index = id;\n    }\n}\n",
  "sourcePath": "/Users/xiangzhengfeng/Desktop/file/qianduanxinlv/truffle-demo/contracts/Todolist.sol",
  "compiler": {
    "name": "solc",
    "version": "0.5.16+commit.9c3226ce.Emscripten.clang"
  },
  "schemaVersion": "3.3.4",
  "updatedAt": "2021-04-07T12:10:08.022Z",
  "devdoc": {
    "methods": {}
  },
  "userdoc": {
    "methods": {}
  }
}